:0300000002054FA7
:0C054F00787FE4F6D8FD75812002055B82
:1004D600C0F9A4B0999282F880908880C6C0868EB2
:0C04E600BF7F407924301912027800100A
:0A052600E493FD1204937F647E004D
:0B053000EF1FAC0670011E4C70F6229D
:10043900EF24FB601314601914601F24037023E573
:10044900A0541F4480F5A022E5A0541F44A0F5A0A4
:1004590022E5A0541F44C0F5A022E5A0541F44E0A2
:03046900F5A022D9
:10049300AE077F071204397580FF1F120439AF06B8
:1004A3007401A807088002C333D8FCF5807F0712C4
:0504B30004398D8022D8
:1003D400AE08AF097C007D0A1202D274D62DF582D4
:1003E40074043CF5837F07120526AE08AF097C0030
:1003F4007D641202D27E007F0ACFCDCFCECCCE1246
:1004040002D274E82FF58274043EF5837F06120548
:1004140026AE08AF097C007D641202D274D62FF593
:100424008274043EF583E493FD7F051204937F6494
:050434007E000205300E
:10053B00AB07AA06EB1BAE0270011A4E6005120345
:04054B00D480F12245
:1003350012046C7FCC1204B87F441204B87FE87EA7
:100345000312053B12046C7FCC1204B87FBE120465
:10035500B812050C8F0A12050C8F0B12046CE4F50C
:1003650008F509F508850B09E509750900F508E59E
:100375000A4209E50854F87055E508C4F854F0C870
:1003850068F508E509C4540F48F509AE08FF7C0077
:100395007D0A1202C08E088F09E50A540FFCE4128B
:1003A500020BE4FBFA7920783F1200FBC004C0057C
:1003B500C006C007AC08AD09E4120206D003D0029E
:0E03C500D001D00012000A12023F8E088F09EC
:0103D3002207
:08055B001203351203D480F8ED
:0404F2007F057E0004
:1004F600EF1FAA0670011E4A600BE4FDEDC3940CC3
:0505060050EE0D80F72E
:01050B0022CD
:0204B800A90792
:1004BA00E4FBC294E91392941204F2D294E9C313AE
:0C04CA00F90BBB08ED7F057E000204F674
:10050C00E4FBC294ECC313FCD294309403430480F8
:09051C001204F20BBB08EBAF0462
:0105250022B3
:10046C00C200D2947F0C7E001204F6C2947F507EA0
:10047C00001204F6D2947F0A7E001204F6A2949223
:06048C00001204F2A200C0
:010492002247
:100003000202ABE86480F8E933E83360110460F07E
:10001300ED33EC337009E8FCE9FDEAFEEBFF220463
:1000230060DED3EB9FEA9EE99DE8C2E78CF0C2F75E
:1000330095F0400CE8CCF8E9CDF9EACEFAEBCFFB2A
:1000430012027685D0F05804700320D5B3E804700B
:10005300075002B2D50202B592D5EC0460F7E4CCA6
:10006300C0E0C398F8603B94186008400DD0E0FBF3
:1000730002028DE4FBFAC9FC8028E830E406E4C9F7
:10008300FBE4CAFCE830E305E4C9CACBFCE8540747
:100093006010F8C3E913F9EA13FAEB13FBEC13FC52
:1000A300D8F130F52FC3E49CFCEF9BFFEE9AFEEDF5
:1000B30099FDD0E0FBEF4E4D4C701222DB030202A0
:1000C300B2EC2CFCEF33FFEE33FEED33FDED30E706
:1000D300EB02028DEF2BFFEE3AFEED39FDD0E0FB94
:1000E30050130BBB00030202B5ED13FDEE13FEEF3D
:0800F30013FFEC13FC02028D67
:1000FB00EC4D6011E8497017ED33EC3304600DE4FF
:10010B00FCFFFEFD22E933E8330470F80202AB1268
:10011B00027658046009E4CC248150062850090269
:10012B0002B52840030202B2C0E0EB4A7044B9802A
:10013B0006D0E0FB0202A1EF4E701CBD8008EBFF66
:10014B00EAFEE9FD80EBE98DF0A4FEE5F00201E4A7
:10015B00E9CDF9EAFEEBFFEF89F0A4FCE5F0CE89DF
:10016B00F0A42EFFE435F0CD89F0A42DFEE435F09C
:10017B008067EF4E7005BD80D780C3EF8BF0A4ACCA
:10018B00F0EE8BF0A42CFCE435F0F8EF8AF0A42C05
:10019B00E5F038FCE433CB8DF0A42CFCE5F03BF818
:1001AB00EE8AF0A42CFCE5F038F8E433CF89F0A408
:1001BB002CFCE5F038CF3400CE89F0A42FFFE5F00E
:1001CB003EFEE433C98DF0A42EFEE5F039CD8AF066
:1001DB00A42FFFE5F03EFEE43DFD33D0E0FB5007DE
:1001EB000BBB000F0202B5EC2CFCEF33FFEE33FE22
:0601FB00ED33FD02028D50
:1002010075F020800E75F010800575F0087D007E78
:10021100007F003392D530D503120327EC33401011
:10022100EF33FFEE33FEED33FDEC33FCD5F0ED2281
:0E023100E5F0247EA2D513CC92E7CDCEFF22BD
:10023F00EDD2E7CD33EC3392D524814006E4FFFEB7
:10024F00FDFC22FCE4CFCECDCC24E0501174FF8016
:10025F00EDC3CC13CCCD13CDCE13CECF13CF0470B3
:07026F00F030D5DE02032789
:10027600E9D2E7C933E833F892D5EDD2E7CD33ECCE
:0702860033FC5002B2D52247
:10028D00EC30E7100FBF000C0EBE00080DBD0004D2
:10029D000BEB6014A2D5EB13FCED92E7FD2274FF7E
:1002AD00FCFDFEFF22E480F8A2D574FF13FC7D80D7
:0302BD00E480EFEB
:1002C000EF8DF0A4A8F0CF8CF0A428CE8DF0A42E52
:0202D000FE220C
:1002D200BC000BBE0029EF8DF084FFADF022E4CC10
:1002E200F875F008EF2FFFEE33FEEC33FCEE9DECD9
:1002F200984005FCEE9DFE0FD5F0E9E4CEFD22ED1F
:10030200F8F5F0EE8420D21CFEADF075F008EF2F68
:10031200FFED33FD4007985006D5F0F222C398FD59
:050322000FD5F0EA22F6
:0E032700C3E49FFFE49EFEE49DFDE49CFC22E7
:00000001FF
