:03000000020003F8
:0C000300787FE4F6D8FD75811D02004AEC
:10021C00C0F9A4B0999282F880908883C6C0868E6B
:02022C00BF7F92
:1001BF00071680828486888A8C070F8183858789BA
:0B01CF008B8D0708245923180406201C
:0900E6007F071200EF7580FF1F77
:1000EF00EF24FB601314601914601F24037023E5C1
:1000FF00A0541F4480F5A022E5A0541F44A0F5A0F2
:10010F0022E5A0541F44C0F5A022E5A0541F44E0EF
:03011F00F5A02226
:1001A300AE071200E6AF067401A807088002C33346
:0C01B300D8FCF5807F071200EF8D802241
:10015600E4FD7F8E1201F5E4F51D7416251DF8E603
:10016600FF7408251DF8E6FD1201F5051DC3E51D02
:0D0176006480948740E47D807F8E0201F557
:10018300E4F51D740F251DF8E6FF120122740825FE
:0F0193001DF8A607051DC3E51D6480948740E491
:0101A200223A
:070239001200E67580FF22B0
:0F01DB00C4540F90021C93FD1201A37F647E0099
:0B01EA00EF1FAC0670011E4C70F622E7
:10008F00E50AC4540F90021C93FDE4FF1201E3E54F
:10009F000A540F93FD7F011201E390022CE493FDAC
:1000AF007F021201E3E5097F031201DBE509540F1B
:1000BF0093FD7F041201E390022CE493FD7F051260
:1000CF0001E3E5087F061201DBE508540F93FD7F7E
:0700DF00071201E3020239E0
:0B022E0012015612018312008F80F8AD
:10020900E4FEC297EF1392A3EFC313FFD2970EBE7A
:0202190008F0EB
:01021B0022C0
:1001F500C29300C29700D29300120209AF05120202
:0402050009C2932275
:10012200E4FDC29300C29700D29300120209E4FFD9
:10013200C297EDC313FD30A303430580D2970FBFCF
:1001420008EEC29300C29700D29700C2A300D2A3C6
:0301520000AF05F6
:010155002287
:10000F0002022EE493A3F8E493A34003F68001F2D7
:10001F0008DFF48029E493A3F85407240CC8C333F2
:10002F00C4540F4420C8834004F456800146F6DFC1
:10003F00E4800B01020408102040809001BFE47E91
:10004F00019360BCA3FF543F30E509541FFEE493B6
:10005F00A360010ECF54C025E060A840B8E493A37D
:10006F00FAE493A3F8E493A3C8C582C8CAC583CAA8
:10007F00F0A3C8C582C8CAC583CADFE9DEE780BE60
:0101DA000024
:00000001FF
