:030000000200A754
:0C00A700787FE4F6D8FD7581090200EEB8
:04015D000208000094
:040133007F647E0067
:0B013700EF1FAC0670011E4C70F6229A
:0F014200EE700BEF24FC7006D2A7C2A6C2A52256
:1000030020B02612013320B020E50945087009C24B
:1000130080F508750901800EE5096401450870063D
:10002300D280F508F50930B0FD20B1261201332046
:10003300B120E50945087009C281F50875090280F8
:100043000EE509640245087006D281F508F509300A
:10005300B1FD20B22612013320B220E50964014527
:10006300087009C28230B2FDD282800FE5096402B2
:1000730045087007C28430B2FDD28420B325120133
:100083003320B31FE509640145087008C28330B308
:10009300FDD28322E509640245087007C28530B3A7
:0400A300FDD28522E3
:0C0151007F047E0012014212000380FBBC
:1000B300020151E493A3F8E493A34003F68001F211
:1000C30008DFF48029E493A3F85407240CC8C3334E
:1000D300C4540F4420C8834004F456800146F6DF1D
:1000E300E4800B010204081020408090015DE47E4F
:1000F300019360BCA3FF543F30E509541FFEE49312
:10010300A360010ECF54C025E060A840B8E493A3D8
:10011300FAE493A3F8E493A3C8C582C8CAC583CA03
:10012300F0A3C8C582C8CAC583CADFE9DEE780BEBB
:01016100009D
:00000001FF
