:03000000020153A7
:0C015300787FE4F6D8FD75811502019A52
:0404B400D2A07F054E
:1004B800000000000000000000000000000000AE86
:0604C800071FEE70EB229D
:0F059000D2A11204B4C2A17F051204B8C2A022E6
:10047C001203AD12046A120442AD077F011205018A
:0C048C00C2A11204B4D2A17F050204B882
:0203AD00AD079A
:1003AF00E4FCC2A07F051204B8ED30E704D2A180AF
:1003BF0002C2A17F051204B8D2A0ED25E0FD7F0592
:0903CF001204B80CBC08DBC2A04A
:0103D8002202
:10044200E4FC1204B4ED25E0FD30A103430501C232
:0C045200A07F051204B80CBC08E8AF0540
:01045E00227B
:0B045F001203AD12046AAF031203ADDC
:10046A001204B4A2A1E433FDC2A07F051204B8AFFE
:01047A00057C
:01047B00225E
:10050100C2A0EF24FF92A17F051204B81204B4C265
:08051100A0D2A17F050204B88D
:10051900AB05AA071205907FA01203AD12046AAFBA
:070529000212045F02048CC2
:02053000AB0717
:100532001205907FA012045F1205907FA112047C25
:02054200AF0503
:010544002294
:10054500AB071205907F901203AD12046A7F40122B
:05055500045F02048CAC
:02055A00AB07ED
:10055C001205907F9012045F1205907F9112047C1B
:02056C00AF05D9
:01056E00226A
:10049800C0F9A4B0999282F880908883C6C0868EED
:0C04A800BF7F4079243019120278001048
:10042300011300011200010F00011000011100026D
:0E04330009000002140000010800020B00C8BE
:1003400012056F1204CE7F0312055AEF75F064A4F4
:10035000FFAEF07C007D331202EB8E0D8F0EE50FA9
:100360007007F50B750CC88006850D0B850E0C12F9
:0A03700001DF12001E12026D80CCA6
:10056F007F0412037A7580FF7F0512037A5380AFE1
:01057F002259
:10037A00EF24FB601314601914601F24037023E533
:10038A00A0541F4480F5A022E5A0541F44A0F5A064
:10039A0022E5A0541F44C0F5A022E5A0541F44E062
:0303AA00F5A02299
:1003D900AE077F0712037A7580FF1F12037AAF06F3
:1003E9007401A807088002C333D8FCF5807F07127F
:0503F900037A8D802253
:100580007F0612037A7580FF0F12037A7580FF22AF
:0E04E800F5837F05E493FD1203D97F647E0047
:0B04F600EF1FAC0670011E4C70F622D8
:10001E00E511600302014FE513704A7DC1FF120422
:10002E00EFAE0BAF0C7C007D641202EB74AA2FF5C1
:10003E008274043E1204E8AE0BAF0C7C007D641299
:10004E0002EB7E007F0ACFCDCFCECCCE1202EB7468
:10005E00982FF58274043EF5837F061204ECAE0BE6
:10006E00AF0C020134E513640160030201527D8E70
:10007E00FF1204EFD3E50A940FE5099427401DAE55
:10008E0009AF0A7C277D101202EB74982FF582744B
:10009E00043EF583E493FD7F031204EFD3E50A9447
:1000AE00E7E50994034024AE09AF0A7C037DE8120C
:1000BE0002EB7C007D0A1202EB74982DF58274041B
:1000CE003CF583E493FD7F041204EFD3E50A9463B9
:1000DE00E5099400401DAE09AF0A7C007D64120252
:1000EE00EB7C007D0A1202EB74982DF58274043CB1
:1000FE001204E8D3E50A9409E50994004024AE09F8
:10010E00AF0A7C007D0A1202EB7C007D0A1202EB24
:10011E0074982DF58274043CF583E493FD7F0612EA
:10012E0004EFAE09AF0A7C007D0A1202EB74982D23
:10013E00F58274043CF583E493FD7F071204EF808F
:05014E000012058022F3
:1001DF0020B01A1204F220B00CE511700575110150
:1001EF008003E4F51120B00512026A80F820B11ADD
:1001FF001204F220B10CE51070057510018003E4B4
:10020F00F51020B10512026A80F820B2281204F20C
:10021F0020B217E50F700B750F01850D0B850E0CB6
:10022F008008E4F50FF50B750CC820B20812001EFC
:10023F0012026D80F520B3221204F220B311E513E0
:10024F0070087513017512018005E4F513F512207E
:0B025F00B30812001E12026D80F52291
:03026A0012001E61
:10026D00E5107071E512703D7F0412037A7580FE02
:10027D00E50F6401702B5380EFC3E50C9496E50BED
:10028D009400400AE50C94FAE50B9400400BC3E58D
:10029D000C945EE50B940140045380FB22438004D3
:1002AD0022438014227F0412037A7580FDC3E50A70
:1002BD0094E8E5099403400AE50A9488E509941346
:1002CD00400BC3E50A9410E509942740045380F7C9
:0E02DD00227580FD227F0412037A7580FF22B5
:1004CE00758916758BB0758D3C758AFF758CFFD24C
:0A04DE008CD2A9D28ED2ABD2AF228D
:03000B0002000EE2
:0D000E00C0E00515E51570020514D0E032C4
:03001B000203FEDF
:1003FE00C0E0C0D0758BB0758D3C0508E508B4140F
:10040E000F85140985150A751400751500750800F9
:05041E00D0D0D0E03257
:10015F00020340E493A3F8E493A34003F68001F273
:10016F0008DFF48029E493A3F85407240CC8C333A1
:10017F00C4540F4420C8834004F456800146F6DF70
:10018F00E4800B0102040810204080900423E47ED9
:10019F00019360BCA3FF543F30E509541FFEE49365
:1001AF00A360010ECF54C025E060A840B8E493A32C
:1001BF00FAE493A3F8E493A3C8C582C8CAC583CA57
:1001CF00F0A3C8C582C8CAC583CADFE9DEE780BE0F
:0104410000BA
:1002EB00BC000BBE0029EF8DF084FFADF022E4CCF7
:1002FB00F875F008EF2FFFEE33FEEC33FCEE9DECC0
:10030B00984005FCEE9DFE0FD5F0E9E4CEFD22ED05
:10031B00F8F5F0EE8420D21CFEADF075F008EF2F4F
:10032B00FFED33FD4007985006D5F0F222C398FD40
:05033B000FD5F0EA22DD
:00000001FF
