:0300000002059B5B
:0C059B00787FE4F6D8FD75812F0205E2A0
:1007980007080020153105052407168082848688FD
:0B07A8008A8C070F81838587898B8D69
:100A9B00E4FEC297EF1392A3EFC313FFD2970EBEE0
:020AAB0008F051
:010AAD002226
:100A8700C29300C29700D29300120A9BAF05120AC5
:040A97009BC2932249
:1007CD00E4FDC29300C29700D29300120A9BE4FF8E
:1007DD00C297EDC313FD30A303430580D2970FBF1E
:1007ED0008EEC29300C29700D29700C2A300D2A315
:0307FD0000AF0545
:0108000022D5
:1008B100E4FD7F8E120A87E4FC74162CF8E6FF74BF
:1008C100082CF8E6FD120A870CBC07ED7D807F8EAF
:0308D100020A8791
:100A3200E4FC740F2CF8E6FF1207CD74082CF8A61C
:050A4200070CBC07EDEC
:010A4700228C
:04098300D2A07F0A75
:10098700000000000000000000000000000000AEB2
:06099700071FEE70EB22C9
:0F0ACE00D2A1120983C2A17F0A120987C2A022F6
:10094B00120834120939120911AD077F011209EB94
:0C095B00C2A1120983D2A17F0A02098701
:02083400AD070E
:10083600E4FCC2A07F0A120987ED30E704D2A1804A
:1008460002C2A17F0A120987D2A0ED25E0FD7F0A28
:090856001209870CBC08DBC2A0EA
:01085F002276
:10091100E4FC120983ED25E0FD30A103430501C28A
:0C092100A07F0A1209870CBC08E8AF0593
:01092D0022A7
:0B092E00120834120939AF031208341C
:10093900120983A2A1E433FDC2A07F0A120987AF7D
:0109490005A8
:01094A00228A
:1009EB00C2A0EF24FF92A17F0A120987120983C2CA
:0809FB00A0D2A17F0A020987C6
:100A1B00AB05AA07120ACE7FA0120834120939AF10
:070A2B000212092E02095B13
:020A4800AB07FA
:100A4A00120ACE7FA012092E120ACE7FA112094BDA
:020A5A00AF05E6
:010A5C002277
:100A5D00AB07120ACE7F901208341209397F40126B
:050A6D00092E02095BE7
:020A7200AB07D0
:100A7400120ACE7F9012092E120ACE7F9112094BD0
:020A8400AF05BC
:010A8600224D
:10096700C0F9A4B0999282F880908880C6C0868E1C
:0C097700BF7F4079243019120278001074
:1007B3000125010228000002210000022B00000293
:0907C300260000012D01012A00AD
:100A0300120AAE12099D1208B17D7E7F01120A1BE4
:080A130012075D1208D480F8FF
:10099D00758916758AFF758CFF758BB0758D3CD278
:0A09AD008CD2A9D28ED2ABD2AF22B9
:03000B0002000EE2
:0D000E00C0E0052CE52C7002052BD0E0327F
:03001B0002086078
:10086000C0E0758BB0758D3C0527E5277002052625
:10087000641445267011852B21852C22F52BF52C2F
:0A088000F526F527752A01D0E032B5
:10075D00120A321206278E238F247F03120A72EF9C
:10076D0075F00AA4FFAEF07C007D331202ED8E2EE3
:10077D008F2FE52AB4010AE4F52A1206AF8E288FD1
:0B078D00297F01120A488F2D02035043
:10080100EF24FB601314601914601F24037023E5A7
:10081100A0541F4480F5A022E5A0541F44A0F5A0D8
:1008210022E5A0541F44C0F5A022E5A0541F44E0D6
:03083100F5A0220D
:100AAE007F05120801E4F5801F1208017580FF22F0
:0B0ADD00EF1FAC0670011E4C70F622EB
:100ABE007F06120801E4F5800F1208017580FF22EF
:100713007C007D641202ED7E007F0ACFCDCFCECC6C
:10072300CE1202ED74672FF58274093EF583E493CC
:03073300FD7F0641
:10073600AE077F06120801AF067401A807088002FB
:10074600C333D8FCF5807F071208018D807FF47EC5
:0707560001120ADD020ABED8
:10035000E52564016017900976E493FDE4FF120738
:1003600036E52590096793FD7F01120736E5256480
:1003700001705CE50AC4540F90096793FDE4FF1215
:100380000736E50A540F93FD7F011207369009776F
:10039000E493FD7F02120736E509C4540F90096704
:1003A00093FD7F03120736E509540F93FD7F041276
:1003B0000736900977E493FD7F05120736E508C4F8
:1003C000540F900967120732E508540F020593E5B0
:1003D0002564027057AE23AF24FC7D641202ED74D5
:1003E000672FF58274093EF583E493FD7F051207BC
:1003F00036AE23AF247C007D641202ED7E007F0ABE
:10040000CFCDCFCECCCE1202ED74792FF582740908
:1004100012072EAE23AF247C007D0A1202ED746712
:100420002DF58274093CF583E4020593E525640308
:10043000702DAE2EAF2FFC7D0A1202ED74792FF5D0
:1004400082740912072EAE2EAF2F7C007D0A120295
:10045000ED74672DF58274093CF583E4020593E59C
:10046000256404703CAE28AF29FC7D641202ED7453
:10047000672FF58274093EF583E493FD7F0512072B
:1004800036AE28AF29120713AE28AF297C007D0AAB
:100490001202ED74672DF58274093CF583E40205C0
:1004A00093E52564056003020566D3E522940FE514
:1004B000219427401DAE21AF227C277D101202ED32
:1004C00074672FF58274093EF583E493FD7F031270
:1004D0000736D3E52294E7E5219403402AAE21AF05
:1004E000227C277D101202ED7E037FE8CFCDCFCE98
:1004F000CCCE1202ED74672FF58274093EF583E4C9
:1005000093FD7F04120736D3E5229463E52194001E
:10051000402AAE21AF227C037DE81202ED7E007FEF
:1005200064CFCDCFCECCCE1202ED74672FF582749E
:10053000093EF583E493FD7F05120736D3E5229447
:1005400009E52194004007AE21AF22120713AE2126
:10055000AF227C007D0A1202ED74672DF5827409CA
:100560003CF583E4802DE5256406702EE52D75F0BD
:10057000648490096793FD7F05120736E52D75F0B9
:100580006484E5F075F00A84120732E52D75F00AEF
:0B05900084E5F093FD7F071207362280
:1008D40020B31B7F647E00120ADD20B31130B3FD08
:0F08E40012075DE525B4060475250122052522BE
:1006AF007D0AC29075E9F375F9FFD2DEAC051DEC3A
:1006BF00601230DFFDA290B3929075E9F375F9FFE8
:1006CF00C2DF80E8C2DEE4F5E9F5F9D2DE3091034E
:1006DF0030DFFAC2DE30DF08C2DF7E007FFF80230B
:1006EF00AFF9EFFEADE97C00E42DFFEC3EFEAD0768
:1006FF00FCE41202217B967A43798B783C12011627
:03070F0012025A79
:0107120022C4
:0409B7007F057E003A
:1009BB00EF1FAA0670011E4A600BE4FDEDC3940CF9
:0509CB0050EE0D80F765
:0109D0002204
:0208F300A90753
:1008F500E4FBC294E91392941209B7D294E9C313A5
:0C090500F90BBB08ED7F057E000209BB6A
:1009D100E4FBC294ECC313FCD2943094034304802F
:0909E1001209B70BBB08EBAF04CF
:0109EA0022EA
:10088A00C200D2947F0C7E001209BBC2947F507EB4
:10089A00001209BBD2947F0A7E001209BBA294926D
:0608AA00001209B7A200D4
:0108B0002225
:1006270012088A7FCC1208F37F441208F312088A53
:100637007FCC1208F37FBE1208F31209D1A9071263
:1006470009D1AD07EDFEE97A002400F51EEA3EF573
:100657001DED54F87051E51DC4F854F0C868F51D38
:10066700E51EC4540F48F51EE9540FFCE412022698
:10067700E4FBFA7920783F120116C004C005C006D2
:10068700C007AE1DAF1E7C007D0A1202DBAC06ADB3
:1006970007E4120221D003D002D001D000120025B6
:0706A70012025A8E1D8F1E86
:0106AE002229
:10001E000202C6E86480F8E933E83360110460F048
:10002E00ED33EC337009E8FCE9FDEAFEEBFF220448
:10003E0060DED3EB9FEA9EE99DE8C2E78CF0C2F743
:10004E0095F0400CE8CCF8E9CDF9EACEFAEBCFFB0F
:10005E0012029185D0F05804700320D5B3E80470D5
:10006E00075002B2D50202D092D5EC0460F7E4CC70
:10007E00C0E0C398F8603B94186008400DD0E0FBD8
:10008E000202A8E4FBFAC9FC8028E830E406E4C9C1
:10009E00FBE4CAFCE830E305E4C9CACBFCE854072C
:1000AE006010F8C3E913F9EA13FAEB13FBEC13FC37
:1000BE00D8F130F52FC3E49CFCEF9BFFEE9AFEEDDA
:1000CE0099FDD0E0FBEF4E4D4C701222DB03020285
:1000DE00CDEC2CFCEF33FFEE33FEED33FDED30E7D0
:1000EE00EB0202A8EF2BFFEE3AFEED39FDD0E0FB5E
:1000FE0050130BBB00030202D0ED13FDEE13FEEF07
:08010E0013FFEC13FC0202A830
:10011600EC4D6011E8497017ED33EC3304600DE4E3
:10012600FCFFFEFD22E933E8330470F80202C61232
:10013600029158046009E4CC248150062850090233
:1001460002D02840030202CDC0E0EB4A7044B980D9
:1001560006D0E0FB0202BCEF4E701CBD8008EBFF30
:10016600EAFEE9FD80EBE98DF0A4FEE5F00201FF71
:10017600E9CDF9EAFEEBFFEF89F0A4FCE5F0CE89C4
:10018600F0A42EFFE435F0CD89F0A42DFEE435F081
:100196008067EF4E7005BD80D780C3EF8BF0A4ACAF
:1001A600F0EE8BF0A42CFCE435F0F8EF8AF0A42CEA
:1001B600E5F038FCE433CB8DF0A42CFCE5F03BF8FD
:1001C600EE8AF0A42CFCE5F038F8E433CF89F0A4ED
:1001D6002CFCE5F038CF3400CE89F0A42FFFE5F0F3
:1001E6003EFEE433C98DF0A42EFEE5F039CD8AF04B
:1001F600A42FFFE5F03EFEE43DFD33D0E0FB5007C3
:100206000BBB000F0202D0EC2CFCEF33FFEE33FEEB
:06021600ED33FD0202A819
:10021C0075F020800E75F010800575F0087D007E5D
:10022C00007F003392D530D503120342EC334010DB
:10023C00EF33FFEE33FEED33FDEC33FCD5F0ED2266
:0E024C00E5F0247EA2D513CC92E7CDCEFF22A2
:10025A00EDD2E7CD33EC3392D524814006E4FFFE9C
:10026A00FDFC22FCE4CFCECDCC24E0501174FF80FB
:10027A00EDC3CC13CCCD13CDCE13CECF13CF047098
:07028A00F030D5DE02034253
:10029100E9D2E7C933E833F892D5EDD2E7CD33ECB3
:0702A10033FC5002B2D5222C
:1002A800EC30E7100FBF000C0EBE00080DBD0004B7
:1002B8000BEB6014A2D5EB13FCED92E7FD2274FF63
:1002C800FCFDFEFF22E480F8A2D574FF13FC7D80BC
:0302D800E480EFD0
:1005A700020A03E493A3F8E493A34003F68001F25D
:1005B70008DFF48029E493A3F85407240CC8C33355
:1005C700C4540F4420C8834004F456800146F6DF24
:1005D700E4800B0102040810204080900798E47E15
:1005E700019360BCA3FF543F30E509541FFEE49319
:1005F700A360010ECF54C025E060A840B8E493A3E0
:10060700FAE493A3F8E493A3C8C582C8CAC583CA0A
:10061700F0A3C8C582C8CAC583CADFE9DEE780BEC2
:0107CC00002C
:1002DB00EF8DF0A4A8F0CF8CF0A428CE8DF0A42E37
:0202EB00FE22F1
:1002ED00BC000BBE0029EF8DF084FFADF022E4CCF5
:1002FD00F875F008EF2FFFEE33FEEC33FCEE9DECBE
:10030D00984005FCEE9DFE0FD5F0E9E4CEFD22ED03
:10031D00F8F5F0EE8420D21CFEADF075F008EF2F4D
:10032D00FFED33FD4007985006D5F0F222C398FD3E
:05033D000FD5F0EA22DB
:0E034200C3E49FFFE49EFEE49DFDE49CFC22CC
:00000001FF
