:030000000200D427
:0C00D400787FE4F6D8FD75810902011B5D
:1001970000C000F900A400B000990092008200F8A6
:1001A700008000900088008300C600A10086008EB2
:0401B70000BF007F06
:0401E80002080012F7
:0401D4007F647E00C6
:0B01D800EF1FAC0670011E4C70F622F9
:1001BB00EE7015EF24F9600A04700DD2A7D2A6C217
:0901CB00A522D2A7D2A6D2A522DA
:04016000AF09AE082D
:10016400AD07AC067F067E001201BB7580010F123D
:1001740001BBED64124C6017ED25E0FFEC33FE7417
:10018400972FF58274013EF583740193F5802275EF
:0301940080FF22C7
:10000300C2B3C2B2C2B1C2B0D2B4D2B5D2C2D2C4E8
:1000130020C40D1201D420C438E4F508F509803159
:1000230020C20E1201D420C2287508007509018070
:100033002020B50E1201D420B517750800750902EA
:10004300800F20B40C1201D420B406750800750982
:1000530003C2B4C2B5C2C2C2C4D2B3D2B2D2B1D245
:10006300B020B00B1201D420B05D12016080F820E3
:10007300B11B1201D420B10B74042509F509E43531
:1000830008F50820B10512016080F8803A20B21B00
:100093001201D420B20B74082509F509E43508F5DB
:1000A3000820B20512016080F8801C20B3221201DF
:1000B300D420B30B740C2509F509E43508F50820A1
:1000C300B30512016080F87508007509121201600A
:0100D300220A
:0501E30012000380FB87
:1000E0000201E3E493A3F8E493A34003F68001F252
:1000F00008DFF48029E493A3F85407240CC8C33321
:10010000C4540F4420C8834004F456800146F6DFEF
:10011000E4800B01020408102040809001E8E47E96
:10012000019360BCA3FF543F30E509541FFEE493E4
:10013000A360010ECF54C025E060A840B8E493A3AB
:10014000FAE493A3F8E493A3C8C582C8CAC583CAD6
:10015000F0A3C8C582C8CAC583CADFE9DEE780BE8E
:0101EC000012
:00000001FF
