:0300000002027E7B
:0C027E00787FE4F6D8FD75811C0202C5F3
:1003C30000C000F900A400B000990092008200F878
:1003D300008000900088008300C600C00086008E65
:1003E30000BF007F40792430191202780010FEFD0F
:1003F300FBF7EFDFBF7F7FBFDFEFF7FBFDFE7EBDC8
:06040300DBE7E7DBBD7E34
:10047C00010C01011A01010E0101080A010D000114
:10048C001601011900011B04011201010B000109E5
:10049C0000010F0001130002100000021700000100
:0204AC000A0044
:070409001204107580FF0FC3
:10041000EF24FB601314601914601F24037023E59C
:10042000A0541F4480F5A022E5A0541F44A0F5A0CD
:1004300022E5A0541F44C0F5A022E5A0541F44E0CB
:03044000F5A02202
:100657007F041204095380AF0F1204097580FF222B
:10053900AE077F071204107580FF1F120410AF0663
:100549007401A807088002C333D8FCF5807F07121D
:0505590004108D80225A
:100667007F071204107580FF1F1204097580FF228F
:0F069700AD07AC067580FF7F041204108D802222
:1004430084E5F025E024C3F582E43403F5837401E5
:1004530093FD7F051205397F647E001204719003BA
:0E046300C37F06740193FD1205397F647E008D
:0B047100EF1FAC0670011E4C70F6225D
:10001E00EF24FE602E1470030200BE240260030261
:10002E000139E50F70030206679003E3120464E5DD
:10003E000E25E024C3F582E43403F583740193FDA9
:10004E0002012EE51360279003E3740193FDE4FF94
:10005E0012046AE50C25E024C3F582E43403F5832B
:10006E007F011204669003E3740193FD800C7DFF03
:10007E00E4FF12046A7F0112046A7F0212046A12FC
:10008E00046DE51BC3940AE51B75F00A401C84251C
:10009E00E024C3F582E43403F583740193FD7F04F9
:1000AE0012046AE51B75F00A800012044302012E49
:1000BE009003E3740193FDE4FF12046AE50C25E05E
:1000CE0024C3F582E43403F583740193FD7F01129A
:1000DE00046A9003E3740193FD7F0212046AE51330
:1000EE00602DE51BC3940AE51B75F00A401C8425A0
:1000FE00E024C3F582E43403F583740193FD7F0499
:10010E0012046AE51B75F00A800012044380117D0B
:10011E00FF7F0412046A7F0512046A7F0612046AC6
:0C012E007F0712046A12066712046D229B
:10013A0020B33A12046D20B329E51AB40105750FEC
:10014A0001801FE51AB4020EE50CB40105750C0412
:10015A008010150C800CE51BB40405751B0C80027D
:10016A00151B20B30512030A80F8E4F50F20B232FA
:10017A0012046D20B224E51AB4020EE50CB404058B
:10018A00750C018015050C8011E51AB4030CE51BEA
:10019A00B40C05751B048002051B20B20512030A64
:1001AA0080F820B12112046D20B113E51AB4030CB2
:1001BA00AD1BE4FF120601751A018002051A20B16F
:1001CA000512030A80F820B01A12046D20B00CE55B
:1001DA001270057512018003E4F51220B0051203AE
:0401EA000F80F82268
:1004E1007F031206428F0BE50BC394405004750E37
:1004F1000122E50BC394805004750E0222E50BC363
:0C05010094C05004750E0322750E0422F5
:09030A00AF1A12001EAD0CE4FF55
:100313008F1C7F041204107580FFE5167044BD0125
:100323000C120410E51954079003F18031BD020E3D
:100333007F04120410E51954079003F98020BD03CC
:100343000E7F04120410E5195403900401800FBDBD
:1003530004187F04120410E519540390040593F55F
:0B03630080227F041204107580FF222E
:10067700758901758AEF758CD8D28CD2A9D2AF2231
:10068700758910758B9B758DFFD28ED2ABD2AF2239
:03001B000204AF2D
:1004AF00C0E0C0F0C0D0758B9B758DFF050DE508C2
:1004BF00850EF0A4B50D09E4B5F005751601800B96
:1004CF00E50DB46406751600750D00D0D0D0F0D0D0
:0204DF00E03209
:03000B000201EE01
:1001EE00C0E0C0F0C0D075D000C000C004C005C0D3
:1001FE0006C007758AEF758CD80511E511700205DA
:10020E0010E512B4010A0518E51870020517050A63
:10021E00E50AB408050519750A00E5116450451084
:10022E007012E513700575130180037513007510B8
:10023E0000751100AE17AF187C007D0A12036EAD6B
:10024E001B7C0012036EEF64014E7013F517F51848
:10025E00E50CB40405750C018002050C751900D06F
:10026E0007D006D005D004D000D0D0D0F0D0E032E8
:1005B400120657E4FF1206188F1B120677120687DD
:0B05C4001204E112013A12030A80F554
:0405CF00D2A07F0532
:1005D300000000000000000000000000000000AE6A
:0605E300071FEE70EB2281
:0F06A600D2A11205CFC2A17F051205D3C2A02297
:1005980012050D12058612055EAD077F011205E9E9
:0C05A800C2A11205CFD2A17F050205D32D
:02050D00AD0738
:10050F00E4FCC2A07F051205D3ED30E704D2A18031
:10051F0002C2A17F051205D3D2A0ED25E0FD7F0514
:09052F001205D30CBC08DBC2A0CC
:0105380022A0
:10055E00E4FC1205CFED25E0FD30A103430501C2F9
:0C056E00A07F051205D30CBC08E8AF0507
:01057A00225E
:0B057B0012050D120586AF0312050DDE
:100586001205CFA2A1E433FDC2A07F051205D3AFA9
:01059600055F
:010597002241
:1005E900C2A0EF24FF92A17F051205D31205CFC245
:0805F900A0D2A17F050205D389
:10060100AB05AA071206A67FA012050D120586AF3B
:070611000212057B0205A89F
:02061800AB072E
:10061A001206A67FA012057B1206A67FA1120598D4
:02062A00AF051A
:01062C0022AB
:10062D00AB071206A67F9012050D1205867F4012AC
:05063D00057B0205A889
:02064200AB0704
:100644001206A67F9012057B1206A67F91120598CA
:02065400AF05F0
:010656002281
:10028A000205B4E493A3F8E493A34003F68001F2D1
:10029A0008DFF48029E493A3F85407240CC8C33375
:1002AA00C4540F4420C8834004F456800146F6DF44
:1002BA00E4800B010204081020408090047CE47E54
:1002CA00019360BCA3FF543F30E509541FFEE49339
:1002DA00A360010ECF54C025E060A840B8E493A300
:1002EA00FAE493A3F8E493A3C8C582C8CAC583CA2B
:1002FA00F0A3C8C582C8CAC583CADFE9DEE780BEE3
:0104AE00004D
:10036E00BC000BBE0029EF8DF084FFADF022E4CC73
:10037E00F875F008EF2FFFEE33FEEC33FCEE9DEC3C
:10038E00984005FCEE9DFE0FD5F0E9E4CEFD22ED82
:10039E00F8F5F0EE8420D21CFEADF075F008EF2FCC
:1003AE00FFED33FD4007985006D5F0F222C398FDBD
:0503BE000FD5F0EA225A
:00000001FF
