:0300000002022BCE
:0C022B00787FE4F6D8FD758109020272AC
:1003DA00C0F9A4B0999282F880908883C6C0868EAC
:0203EA00BF7FD3
:04041C0002080000D2
:1003EC001203FC1203187508008F091202B780F370
:10037400EF24FB601314601914601F24037023E539
:10038400A0541F4480F5A022E5A0541F44A0F5A06A
:1003940022E5A0541F44C0F5A022E5A0541F44E068
:0303A400F5A0229F
:1003FC007F051203745380AF1F1203747580FF22A4
:1003A700AE077F06120374AF067401A80708800220
:0E03B700C333D8FCF5807F071203748D8022BB
:10040C007F06120374E4F5800F1203747580FF22CB
:0A03C500E493FD1203A77FF47E010C
:0B03CF00EF1FAC0670011E4C70F62200
:1002B700AE08AF097C007D641201C874DA2FF5829D
:1002C70074033EF5837F051203C512040CAE08AF15
:1002D700097C007D0A1201C87C007D0A1201C874DE
:1002E700DA2DF58274033CF5837F061203C51204E9
:1002F7000CAE08AF097C007D0A1201C874DA2DF52F
:100307008274033CF583E493FD7F071203C802045C
:010317000CD9
:100318007E0AC29075E9F375F9FFD2DEAD061EEDCF
:10032800600F30DFFDB29075E9F375F9FFC2DF8029
:10033800EBC2DEE4F5E9F5F9D2DE30910330DFFAFD
:10034800C2DE30DF06C2DF7FFF8020AFF9EFFEADEF
:10035800E97C00E42DFDEC3EFCE412010E7B967A6C
:0B03680043798B783C12000312014720
:010373002267
:10000300EC4D6011E8497017ED33EC3304600DE4F7
:10001300FCFFFEFD22E933E8330470F80201B3125A
:10002300017E58046009E4CC24815006285009025B
:1000330001BD2840030201BAC0E0EB4A7044B98015
:1000430006D0E0FB0201A9EF4E701CBD8008EBFF58
:10005300EAFEE9FD80EBE98DF0A4FEE5F00200EC99
:10006300E9CDF9EAFEEBFFEF89F0A4FCE5F0CE89D8
:10007300F0A42EFFE435F0CD89F0A42DFEE435F095
:100083008067EF4E7005BD80D780C3EF8BF0A4ACC3
:10009300F0EE8BF0A42CFCE435F0F8EF8AF0A42CFE
:1000A300E5F038FCE433CB8DF0A42CFCE5F03BF811
:1000B300EE8AF0A42CFCE5F038F8E433CF89F0A401
:1000C3002CFCE5F038CF3400CE89F0A42FFFE5F007
:1000D3003EFEE433C98DF0A42EFEE5F039CD8AF05F
:1000E300A42FFFE5F03EFEE43DFD33D0E0FB5007D7
:1000F3000BBB000F0201BDEC2CFCEF33FFEE33FE14
:06010300ED33FD02019541
:1001090075F020800E75F010800575F0087D007E71
:10011900007F003392D530D50312021DEC33401015
:10012900EF33FFEE33FEED33FDEC33FCD5F0ED227A
:0E013900E5F0247EA2D513CC92E7CDCEFF22B6
:10014700EDD2E7CD33EC3392D524814006E4FFFEB0
:10015700FDFC22FCE4CFCECDCC24E0501174FF800F
:10016700EDC3CC13CCCD13CDCE13CECF13CF0470AC
:07017700F030D5DE02021D8D
:10017E00E9D2E7C933E833F892D5EDD2E7CD33ECC7
:07018E0033FC5002B2D52240
:10019500EC30E7100FBF000C0EBE00080DBD0004CB
:1001A5000BEB6014A2D5EB13FCED92E7FD2274FF77
:1001B500FCFDFEFF22E480F8A2D574FF13FC7D80D0
:0301C500E480EFE4
:100237000203ECE493A3F8E493A34003F68001F2EE
:1002470008DFF48029E493A3F85407240CC8C333C8
:10025700C4540F4420C8834004F456800146F6DF97
:10026700E4800B010204081020408090041CE47E07
:10027700019360BCA3FF543F30E509541FFEE4938C
:10028700A360010ECF54C025E060A840B8E493A353
:10029700FAE493A3F8E493A3C8C582C8CAC583CA7E
:1002A700F0A3C8C582C8CAC583CADFE9DEE780BE36
:0104200000DB
:1001C800BC000BBE0029EF8DF084FFADF022E4CC1B
:1001D800F875F008EF2FFFEE33FEEC33FCEE9DECE4
:1001E800984005FCEE9DFE0FD5F0E9E4CEFD22ED2A
:1001F800F8F5F0EE8420D21CFEADF075F008EF2F74
:10020800FFED33FD4007985006D5F0F222C398FD64
:050218000FD5F0EA2201
:0E021D00C3E49FFFE49EFEE49DFDE49CFC22F2
:00000001FF
