:030000000208DC17
:0C08DC00787FE4F6D8FD758178020923CE
:0E0DD40080828486888A8C81838587898B8DB6
:0909680007080009230904022418
:100D9200E4FEC297EF1392A3EFC313FFD2970EBEE6
:020DA20008F057
:010DA400222C
:100D7E00C29300C29700D29300120D92AF05120DCE
:040D8E0092C2932258
:100AE700E4FDC29300C29700D29300120D92E4FF77
:100AF700C297EDC313FD30A303430580D2970FBF01
:100B070008EEC29300C29700D29700C2A300D2A3F7
:030B170000AF0527
:010B1A0022B8
:100C1E00E4FD7F8E120D7EE4FCEC900DD493FF74F8
:100C2E00082CF8E6FD120D7E0CBC07ED7D807F8E44
:030C3E00020D7E26
:100D5300E4FCEC900DDB93FF120AE774082CF8A671
:050D6300070CBC07EDC8
:010D68002268
:040CD300D2A07F0527
:100CD700000000000000000000000000000000AE5F
:060CE700071FEE70EB2276
:0F0DC500D2A1120CD3C2A17F05120CD7C2A0225B
:0C0DE200C2A1120CD3D2A17F05020CD7D5
:020B4E00AD07F1
:100B5000E4FCC2A07F05120CD7ED30E704D2A180DF
:100B600002C2A17F05120CD7D2A0ED25E0FD7F05C2
:090B7000120CD70CBC08DBC2A07A
:010B79002259
:100C7D00E4FC120CD3ED25E0FD30A103430501C2C8
:0C0C8D00A07F05120CD70CBC08E8AF05D6
:010C99002238
:0B0C9A00120B4E120CA5AF03120B4E04
:100CA500120CD3A2A1E433FDC2A07F05120CD7AF6D
:010CB5000539
:010CB600221B
:100D3B00C2A0EF24FF92A17F05120CD7120CD3C2D5
:080D4B00A0D2A17F05020CD724
:100D6900AB07120DC57F90120B4E120CA57F4012D6
:050D79000C9A020DE2DE
:040BD000AB07AA06BF
:100BD400120DC57F90120C9A120DC57F91120B4E07
:100BE400120CA5120C7DAD077F01120D3B120DE214
:020BF400AF054B
:010BF60022DC
:100CB700C0F9A4B0999282F880908880C6C0868EC9
:0C0CC700BF7F4079243019120278001021
:100971000271000002230000027500000221000044
:1009810002280000145C00000000000000000000CC
:1009910000000000000000000000017000025A0089
:1009A10000012F1E20283000000000000000000080
:1009B1000000000000000000000000000000000036
:1009C1000000000000000000000000000000000224
:1009D100580000022C0000012E00012700017301C4
:1009E1000177010125000174000178000126010150
:0209F1002B00D9
:100B7A00120DA5120CED120C1E1208458F5CE4F53D
:100B8A005C7F01120BD08F2A120D531209F412073F
:0C0B9A00A712062E1203501206FA80E586
:100CED00758916758AFF758CFF758BB0758D3CD225
:0A0CFD008CD2A9D28ED2ABD2AF2266
:03000B0002000EE2
:0D000E00C0E00576E57670020575D0E032A1
:03001B00020A795D
:100A7900C0E0C0D0758BB0758D3C0524E5247002AB
:100A8900052364144523700E857521857622F52387
:100A9900F524F575F576E572640145717018052937
:100AA900E5297002052864284528700AF525F5719D
:100AB900F572F528F529E574B4010D0578E578B4E2
:100AC9003C06757400757800E52420E00CE52B7070
:0E0AD90005752B018003752B00D0D0D0E032C4
:1009F400E5747072E52AD39432506BE52664017075
:100A0400657F64FE120BC5E52AD394325058E5265F
:100A140064017052757401F5260525C3E52294C856
:100A2400E52194004030D3E52294D0E52194075089
:100A340025AE21AF227C007D2D1202EDEF25E0FFD3
:100A4400EE33FEEF2402FFE43EFEE52525E0242EEE
:100A5400F8A60608A607120845745B2525F8A6071C
:100A6400850A2E850927E574700AE52AD394324055
:050A74000375260122BC
:1007A700E4F570F558F559F55AF55BF52CF52DFF7D
:1007B700EFC395255049745C2FF8E6FE255BF55B82
:1007C700E4355AF55AEF25E02430F8E6FC08E6FD53
:1007D700252DF52DEC352CF52CE570C39E500774AF
:1007E7005C2FF8E6F570C3E5599DE5589C500DEF71
:1007F70025E02430F8E6F55808E6F5590F80B1E50D
:1008070025AE5AAF5B7C007D0A60201202DBE5252E
:10081700FBFD1202ED8E5A8F5BAE2CAF2D7C007D57
:100827000A1202DBAD031202ED800E1202DB8E5AB2
:0D0837008F5BAE2CAF2D1202DB8E2C8F2DAF
:010844002291
:100B1B00EF24FB601314601914601F24037023E58A
:100B2B00A0541F4480F5A022E5A0541F44A0F5A0BB
:100B3B0022E5A0541F44C0F5A022E5A0541F44E0B9
:030B4B00F5A022F0
:100DA5007F05120B1B7580AF1F120B1B7580FF2271
:100DB5007F06120B1BE4F5800F120B1B7580FF22BB
:100C4100AE077F06120B1BAF067401A807088002CE
:0E0C5100C333D8FCF5807F07120B1B8D802269
:100BA600540F93FD7F04120C417F647E00120BC527
:0F0BB6007F05900CC7E493FD120C417F647E0015
:0B0BC500EF1FAC0670011E4C70F62202
:10035000E574640160030203E27D86FF120BBE7444
:100360005B2525F8E675F00A84900CB793FD7F03B2
:10037000120BBE745B2525F8E675F00A84E5F012D1
:100380000BA8E52525E0242EF8E6FA08E6FB4A70DE
:100390000C900CC193FD7F06120BBE803D7C007D4E
:1003A0000AAF03AE021202ED74B72FF582740C3E51
:1003B000F583E493FD7F06120BBEE52525E0242E90
:1003C000F8E6FE08E6FF7C007D0A1202ED74B72D08
:1003D000F582740C3CF583E493FD7F07120BBE029B
:1003E000062AE57364017050E50AC4540F900CB7F7
:1003F00093FDE4FF120BBEE50A540F93FD7F01123B
:100400000BBE7F02120BB8E509C4540F900CB793D2
:10041000FD7F03120BBEE509120BA6E508C4540FBD
:10042000900CB793FD7F06120BBEE508540F93FDA9
:100430007F07120BBE02062AE57364026003020501
:10044000FFE577640160030204E5900CC393FDE4CB
:10045000FF120BBEE57075F00A84900CB793FD7F18
:1004600002120BBEE57075F00A84E5F093FD7F0380
:10047000120BBE900CC7E493FD7F04120BBEAE5A64
:10048000AF5B7C007D641202ED74B72FF582740CB3
:100490003EF583E493FD7F05120BBEAE5AAF5B7C45
:1004A000007D641202ED7E007F0ACFCDCFCECCCE90
:1004B0001202ED74C92FF582740C3EF583E493FDAE
:1004C0007F06120BBEAE5AAF5B7C007D0A1202EDB6
:1004D00074B72DF582740C3CF583E493FD7F07120D
:1004E0000BBE02062AE577640260030205A07D893F
:1004F000FF120BBEAE58AF597C007D0A1202ED749C
:10050000B72FF582740C3EF583E493FD7F02120B46
:10051000BEAE58AF597C007D0A1202ED74B72DF5BE
:1005200082740C3CF583E493FD7F03120BBE900CA8
:10053000C7E493FD7F04120BBEAE2CAF2D7C007D73
:10054000641202ED74B72FF582740C3EF583E493C8
:10055000FD7F05120BBEAE2CAF2D7C007D64120218
:10056000ED7E007F0ACFCDCFCECCCE1202ED74C986
:100570002FF582740C3EF583E493FD7F06120BBECB
:10058000AE2CAF2D7C007D0A1202ED74B72DF582E2
:10059000740C3CF583E493FD7F07120BBE02062A20
:1005A000E5776403600302062D900CC693FDE4FF1B
:1005B000120BBEE52575F00A84900CB793FD7F0100
:1005C000120BBEE52575F00A84E5F093FD7F02125B
:1005D0000BBEE52EC4540F93FD7F03120BBEE52E18
:1005E000120BA6E527C4540F900CB793FD7F06129B
:1005F0000BBEE527540F93FD7F07120BBE802BE542
:1006000073640370287D8CFF120BBEE52F75F00A12
:1006100084900CB793FD7F06120BBEE52F75F00A90
:0E06200084E5F093FD7F07120BBE120DB5228C
:10062E00C2B3D2B2D2C2D2C420B32420C4217FC856
:10063E007E00120BC520C40FE573B4030875730159
:10064E007577018002057320C42E1206F780F820FC
:10065E00B32620C2237FC87E00120BC520C211E52F
:10066E0073B4030CE52FB46305E4F52F8002052F58
:10067E0020C2051206F780F8C2B2D2B3D2C2D2C4DB
:10068E0020B22920C4267FC87E00120BC520C411BB
:10069E00E573B4020CE577B40305757701800205A6
:1006AE007720C4441203501206FA80F520B2392086
:1006BE00C236120BC120C220E573B4030BE52F70B6
:1006CE0005752F638002152FE573B4020BE577B421
:1006DE00030675710075720120C2081203501206CE
:0906EE00FA80F5E4F571F57222C1
:0306F7001203509B
:1006FA00E573B4010DE57470097F04120B1BC28007
:10070A008010E573B4020BE57470077F04120B1BAB
:10071A00C281E574B401077F04120B1BC282E5256E
:10072A006033245BF8E6D3952F400EE52BB401091C
:10073A007F04120B1BC28380077F04120B1BD28318
:10074A00E52525E0242EF8E6FE08E64E70077F042C
:10075A00120B1BC284E525C394024035745A252521
:10076A00F8E6FF745B2525F8E6D39F4024E52525A6
:10077A00E0242CF8E6FE08E6FFE52525E0242EF81D
:10078A00E6FC08E6D39FEC9E40077F04120B1BC2CF
:0D079A0085120BC17F04120B1B7580FF221E
:040D07007F057E00E6
:100D0B00EF1FAA0670011E4A600BE4FDEDC3940CA5
:050D1B0050EE0D80F711
:010D200022B0
:020C5F00A907E3
:100C6100E4FBC294E9139294120D07D294E9C313E1
:0C0C7100F90BBB08ED7F057E00020D0BA7
:100D2100E4FBC294ECC313FCD294309403430480DB
:090D3100120D070BBB08EBAF0427
:010D3A002296
:100BF700C200D2947F0C7E00120D0BC2947F507EF0
:100C070000120D0BD2947F0A7E00120D0BA2949254
:060C170000120D07A2000F
:010C1D0022B4
:10084500120BF77FCC120C5F7F44120C5F120BF773
:100855007FCC120C5F7FBE120C5F120D21A907120F
:100865000D21750F008F10E510751000F50FE94289
:1008750010E50F54F8705FE50FC4F854F0C868F53B
:100885000FE510C4540F48F510AE0FFF7C007D0A2C
:100895001202DB8E0F8F10E9540FFCE4120226E4DE
:1008A500FBFA7920783F120116C004C005C006C0C6
:1008B50007AC0FAD10E4120221D003D002D001D055
:1008C5000012002512025A8E0F8F107C007D0A122D
:0608D50002ED8E0F8F10F2
:0108DB0022FA
:10001E000202C6E86480F8E933E83360110460F048
:10002E00ED33EC337009E8FCE9FDEAFEEBFF220448
:10003E0060DED3EB9FEA9EE99DE8C2E78CF0C2F743
:10004E0095F0400CE8CCF8E9CDF9EACEFAEBCFFB0F
:10005E0012029185D0F05804700320D5B3E80470D5
:10006E00075002B2D50202D092D5EC0460F7E4CC70
:10007E00C0E0C398F8603B94186008400DD0E0FBD8
:10008E000202A8E4FBFAC9FC8028E830E406E4C9C1
:10009E00FBE4CAFCE830E305E4C9CACBFCE854072C
:1000AE006010F8C3E913F9EA13FAEB13FBEC13FC37
:1000BE00D8F130F52FC3E49CFCEF9BFFEE9AFEEDDA
:1000CE0099FDD0E0FBEF4E4D4C701222DB03020285
:1000DE00CDEC2CFCEF33FFEE33FEED33FDED30E7D0
:1000EE00EB0202A8EF2BFFEE3AFEED39FDD0E0FB5E
:1000FE0050130BBB00030202D0ED13FDEE13FEEF07
:08010E0013FFEC13FC0202A830
:10011600EC4D6011E8497017ED33EC3304600DE4E3
:10012600FCFFFEFD22E933E8330470F80202C61232
:10013600029158046009E4CC248150062850090233
:1001460002D02840030202CDC0E0EB4A7044B980D9
:1001560006D0E0FB0202BCEF4E701CBD8008EBFF30
:10016600EAFEE9FD80EBE98DF0A4FEE5F00201FF71
:10017600E9CDF9EAFEEBFFEF89F0A4FCE5F0CE89C4
:10018600F0A42EFFE435F0CD89F0A42DFEE435F081
:100196008067EF4E7005BD80D780C3EF8BF0A4ACAF
:1001A600F0EE8BF0A42CFCE435F0F8EF8AF0A42CEA
:1001B600E5F038FCE433CB8DF0A42CFCE5F03BF8FD
:1001C600EE8AF0A42CFCE5F038F8E433CF89F0A4ED
:1001D6002CFCE5F038CF3400CE89F0A42FFFE5F0F3
:1001E6003EFEE433C98DF0A42EFEE5F039CD8AF04B
:1001F600A42FFFE5F03EFEE43DFD33D0E0FB5007C3
:100206000BBB000F0202D0EC2CFCEF33FFEE33FEEB
:06021600ED33FD0202A819
:10021C0075F020800E75F010800575F0087D007E5D
:10022C00007F003392D530D503120342EC334010DB
:10023C00EF33FFEE33FEED33FDEC33FCD5F0ED2266
:0E024C00E5F0247EA2D513CC92E7CDCEFF22A2
:10025A00EDD2E7CD33EC3392D524814006E4FFFE9C
:10026A00FDFC22FCE4CFCECDCC24E0501174FF80FB
:10027A00EDC3CC13CCCD13CDCE13CECF13CF047098
:07028A00F030D5DE02034253
:10029100E9D2E7C933E833F892D5EDD2E7CD33ECB3
:0702A10033FC5002B2D5222C
:1002A800EC30E7100FBF000C0EBE00080DBD0004B7
:1002B8000BEB6014A2D5EB13FCED92E7FD2274FF63
:1002C800FCFDFEFF22E480F8A2D574FF13FC7D80BC
:0302D800E480EFD0
:1008E800020B7AE493A3F8E493A34003F68001F2A1
:1008F80008DFF48029E493A3F85407240CC8C33311
:10090800C4540F4420C8834004F456800146F6DFDF
:10091800E4800B0102040810204080900968E47EFE
:10092800019360BCA3FF543F30E509541FFEE493D4
:10093800A360010ECF54C025E060A840B8E493A39B
:10094800FAE493A3F8E493A3C8C582C8CAC583CAC6
:10095800F0A3C8C582C8CAC583CADFE9DEE780BE7E
:0109F3000003
:1002DB00EF8DF0A4A8F0CF8CF0A428CE8DF0A42E37
:0202EB00FE22F1
:1002ED00BC000BBE0029EF8DF084FFADF022E4CCF5
:1002FD00F875F008EF2FFFEE33FEEC33FCEE9DECBE
:10030D00984005FCEE9DFE0FD5F0E9E4CEFD22ED03
:10031D00F8F5F0EE8420D21CFEADF075F008EF2F4D
:10032D00FFED33FD4007985006D5F0F222C398FD3E
:05033D000FD5F0EA22DB
:0E034200C3E49FFFE49EFEE49DFDE49CFC22CC
:00000001FF
