:03000000020026D5
:0C002600787FE4F6D8FD75810B02006DB8
:10013E0057656C636F6D6520746F20584D46207344
:10014E00797374656D210D0A0054686973205379B3
:10015E007374656D2069732072756E6E696E67219A
:03016E000D0A0077
:03001C00010B00D5
:100003001201C51201AF7BFF7A01793E1201717FA4
:09001300041200B212010180FB8D
:1000B200EF24FB601A1460271460342403703FE5B8
:1000C200A060047F0180027F00EF4480F5A022E55A
:1000D200A060047F0180027F00EF44A0F5A022E52A
:1000E200A060047F0180027F00EF44C0F5A022E5FA
:0F00F200A060047F0180027F00EF44E0F5A022B0
:1001C5007F051200B2E4F5807F041200B27580FF4E
:0101D5002207
:1001AF00758920758DFD758BFDD28E759850E4F590
:0601BF008ED2ACD2AF228B
:030023000201D601
:0901D60030980585990BC298329E
:0801DF008F993099FDC29922AD
:100171008B088A09890AAB08AA09A90A12019660A3
:1001810013050AE50A7002050914F9120196FF1216
:0501910001DF80E22205
:10010100E50B603854F02450601424F06022242060
:10011100702AE50BF444F0FFE580440F800DE50BF8
:10012100F4C454F0440FFFE58044F05FF58080098A
:0D0131007BFF7A017957120171E4F50B2272
:10003200020003E493A3F8E493A34003F68001F2E1
:1000420008DFF48029E493A3F85407240CC8C333CF
:10005200C4540F4420C8834004F456800146F6DF9E
:10006200E4800B010204081020408090001CE47E12
:10007200019360BCA3FF543F30E509541FFEE49393
:10008200A360010ECF54C025E060A840B8E493A35A
:10009200FAE493A3F8E493A3C8C582C8CAC583CA85
:1000A200F0A3C8C582C8CAC583CADFE9DEE780BE3D
:01001F0000E0
:10019600BB010689828A83E0225002E722BBFE0267
:0901A600E32289828A83E493229A
:00000001FF
