:03000000020252A7
:0C025200787FE4F6D8FD75811502029952
:1004A400C0F9A4B0999282F880908883C6C0868EE1
:0C04B400BF7F407924301912027800103C
:10048800011300020E0000020C0000010900011116
:0B04980000011200020A000001100029
:0A0345007F0712034F7580FF7F064B
:10034F00EF24FB601A1460271460342403703FE518
:10035F00A060047F0180027F00EF4480F5A022E5BA
:10036F00A060047F0180027F00EF44A0F5A022E58A
:10037F00A060047F0180027F00EF44C0F5A022E55A
:0F038F00A060047F0180027F00EF44E0F5A02210
:100564007F0512034F5380AF7F0412034F7580FF42
:010574002264
:10039E007C007D641202F07E007F0ACFCDCFCECCE2
:1003AE00CE1202F074A42FF58274043EF5837F06FC
:0A03BE00E493FD12046C7F647E00DE
:0B03C800EF1FAC0670011E4C70F62207
:10046C00AE07120345AF067401A807088002C33318
:0C047C00D8FCF5807F0712034F8D802212
:0F0585001203457580FF7F0712034F7580FF2219
:1001AE00EF146039146067240260030202517DC1AE
:1001BE00E4FF1203C1AE14AF157C007D641202F091
:1001CE0074B62FF58274043EF5837F051203BEAE1E
:1001DE0014AF1512039EAE14AF150202327D8CE4DD
:1001EE00FF1203C1AE0EAF0F7C007D641202F074DD
:1001FE00B62FF58274043EF583E493FD7F0512035A
:10020E00C1AE0EAF0F12039EAE0EAF0F80167DC89D
:10021E00E4FF1203C1AE0CAF0D7C007D0A1203AFDA
:10022E00AE0CAF0D7C007D0A1202F074A42DF58287
:10023E0074043CF583E493FD7F071203C112058518
:04024E001203C422B1
:10000E00C2B3D2B2D2B4D2B520B53F7FC87E0012F1
:10001E0003C820B52BE4F512E513B40205E4F5137D
:10002E00801EE513B401170513AE0EAF0F7C007DD5
:10003E000A1202F0AD07E4FFFE12050E8002051350
:10004E0020B543AF131201AE80F620B4397FC87EBF
:10005E00001203C820B425E513B4011EE50FB4F455
:10006E000CE50EB40107E4F50EF50F800F74322582
:10007E000FF50FE4350EF50E8002051220B407AF12
:10008E00131201AE80F6D2B3C2B2D2B4D2B520B53D
:10009E00227FC87E001203C820B50EE513B40207F6
:1000AE00E4F50CF50D8002051220B541AF131201D7
:1000BE00AE80F620B4377FC87E001203C820B4236A
:1000CE00E513B4011CE50F450E7008750E01750F92
:1000DE00F4801074CE250FF50F74FF350EF50E80DB
:0E00EE0002051220B407AF131201AE80F622F5
:10057500758901758AAF758C3CD28CD2A9D2AF2210
:03000B000203D31A
:1003D300C0E0C0D0758AAF758C3CE511B401160539
:1003E3000BE50B7002050AC39464E50A9400400E02
:1003F3007510018009751000750A00750B00D0D0C7
:03040300D0E03214
:0E05940000007F037E487DA1DDFEDEFCDFFA65
:0105A2002236
:1000FC001205641205757F0312054F8F08EF75F01A
:10010C0064A4FFAEF07C007DFF1202F07C007D0544
:10011C001202DE8E148F15D3E515950FE514950E8E
:10012C004003750901E509B40116D3E515950FE5F2
:10013C0014950E500B050DE50D7002050CE4F50938
:10014C00AF131201AE12000EC3E515950FE5149511
:10015C000E50057511018003E4F511E5107F04B410
:10016C00010812034F5380FE800612034F43800197
:10017C00E50D7F0430E00812034F5380FD8006121A
:10018C00034F438002E512C39403400B7F04120318
:10019C004F5380FB0201027F0412034F4380040281
:0201AC0001024E
:0404DC00D2A07F0526
:1004E000000000000000000000000000000000AE5E
:0604F000071FEE70EB2275
:0F05A300D2A11204DCC2A17F051204E0C2A02283
:1004C00012040612045A120432AD077F011204F618
:0C04D000C2A11204DCD2A17F050204E0EE
:02040600AD0740
:10040800E4FCC2A07F051204E0ED30E704D2A1802D
:1004180002C2A17F051204E0D2A0ED25E0FD7F0510
:090428001204E00CBC08DBC2A0C8
:0104310022A8
:10043200E4FC1204DCED25E0FD30A103430501C21A
:0C044200A07F051204E00CBC08E8AF0528
:01044E00228B
:0B044F0012040612045AAF0312040648
:10045A001204DCA2A1E433FDC2A07F051204E0AFBE
:01046A00058C
:01046B00226E
:1004F600C2A0EF24FF92A17F051204E01204DCC221
:08050600A0D2A17F050204E070
:10050E00AB058F821205A37FA012040612045AAF08
:07051E008212044F0204D019
:02052500AB0722
:100527001205A37FA012044F1205A37FA11204C0D6
:02053700AF050E
:01053900229F
:10053A00AB071205A37F9012040612045A7F4012D9
:05054A00044F0204D083
:02054F00AB07F8
:100551001205A37F9012044F1205A37F911204C0CC
:02056100AF05E4
:010563002275
:10025E000200FCE493A3F8E493A34003F68001F2BA
:10026E0008DFF48029E493A3F85407240CC8C333A1
:10027E00C4540F4420C8834004F456800146F6DF70
:10028E00E4800B0102040810204080900488E47E74
:10029E00019360BCA3FF543F30E509541FFEE49365
:1002AE00A360010ECF54C025E060A840B8E493A32C
:1002BE00FAE493A3F8E493A3C8C582C8CAC583CA57
:1002CE00F0A3C8C582C8CAC583CADFE9DEE780BE0F
:0104A3000058
:1002DE00EF8DF0A4A8F0CF8CF0A428CE8DF0A42E34
:0202EE00FE22EE
:1002F000BC000BBE0029EF8DF084FFADF022E4CCF2
:10030000F875F008EF2FFFEE33FEEC33FCEE9DECBA
:10031000984005FCEE9DFE0FD5F0E9E4CEFD22ED00
:10032000F8F5F0EE8420D21CFEADF075F008EF2F4A
:10033000FFED33FD4007985006D5F0F222C398FD3B
:050340000FD5F0EA22D8
:00000001FF
