:03000000020003F8
:0C000300787FE4F6D8FD75810902004A00
:0401320002080000BF
:09012100E5A0541F4480F5A02262
:10011100758901758C3C758AAFD2A9D2AFD28C2278
:1000E400758C3C758AAF0509E50970020508AE08F0
:1000F400FF7C007D0A12008FED4C7002B280E5098E
:0D010400646445087006B287F508F509220D
:08012A0012012112011180FEF7
:10000F0002012AE493A3F8E493A34003F68001F2DC
:10001F0008DFF48029E493A3F85407240CC8C333F2
:10002F00C4540F4420C8834004F456800146F6DFC1
:10003F00E4800B0102040810204080900132E47E1E
:10004F00019360BCA3FF543F30E509541FFEE493B6
:10005F00A360010ECF54C025E060A840B8E493A37D
:10006F00FAE493A3F8E493A3C8C582C8CAC583CAA8
:10007F00F0A3C8C582C8CAC583CADFE9DEE780BE60
:0101360000C8
:10008F00BC000BBE0029EF8DF084FFADF022E4CC55
:10009F00F875F008EF2FFFEE33FEEC33FCEE9DEC1E
:1000AF00984005FCEE9DFE0FD5F0E9E4CEFD22ED64
:1000BF00F8F5F0EE8420D21CFEADF075F008EF2FAE
:1000CF00FFED33FD4007985006D5F0F222C398FD9F
:0500DF000FD5F0EA223C
:00000001FF
