:03000000020410E7
:0C041000787FE4F6D8FD75813E020457A9
:10050D0068454C4C4F0D0A002425642C25640D0ABA
:10051D00002325642C25640D0A004552524F520DBF
:0E052D000A0053540D0A00504152410D0A00BD
:1005680001261E01232301221C012432023B000123
:04057800023D00013F
:10057D0012053B1205917BFF7A05790D120552127A
:04058D00049C80FB4F
:10053B00759850438E01538EFB75D7CC75D6FF4300
:07054B008E10D2ACD2AF22EA
:100552001203826010F5993099FDC299740129F94C
:06056200E43AFA80EB22EE
:0805A0008F993099FDC29922E8
:03002300020003D5
:10000300C0E0C0D075D000C00030980B7427252500
:0E001300F8A6990525C298D000D0D0D0E032D2
:0C049C00E525606C2426F8E6640A706414
:1004A800E527B45319E528B454147BFF7A05791568
:1004B800750C0085240D750E0085220F8030E52708
:1004C80064507024E5286441701EE529B45219E58A
:1004D8002AB441147BFF7A05791E750C0085230D1B
:1004E800750E0085260F80067BFF7A057927120096
:1004F80088E4F525F50874272508F8E4F60508E5E5
:0405080008B414F22D
:01050C0022CC
:0E05910000007F177ECD7D78DDFEDEFCDFFAF8
:01059F002239
:10041C0002057DE493A3F8E493A34003F68001F274
:10042C0008DFF48029E493A3F85407240CC8C333E1
:10043C00C4540F4420C8834004F456800146F6DFB0
:10044C00E4800B0102040810204080900568E47ED3
:10045C00019360BCA3FF543F30E509541FFEE493A5
:10046C00A360010ECF54C025E060A840B8E493A36C
:10047C00FAE493A3F8E493A3C8C582C8CAC583CA97
:10048C00F0A3C8C582C8CAC583CADFE9DEE780BE4F
:01057C00007E
:10038200BB010689828A83E0225002E722BBFE0279
:09039200E32289828A83E49322AC
:10002600E518240CF8E60518227809300702780C42
:10003600E475F0011203DA0203822000EB7F2ED270
:10004600008018EF540F2490D43440D4FF30040BB2
:10005600EF24BFB41A0050032461FFE519600215AE
:1000660019051CE51C7002051B30070D7809E4759F
:10007600F0011203DAEF0203C80205A07403D207E7
:100086008003E4C207F5188B098A0A890BE4F5197F
:10009600F51BF51CE51960077F2012006180F575D8
:1000A6001AFFC201C200C202C203C205C206C208CA
:1000B60012002FFF700D3007057F00120072AF1C73
:1000C600AE1B22B4255FC2D5C20412002FFF24D076
:1000D600B40A00501A75F00A781930D50508B6FF2B
:1000E6000106C6A426F620D5047002D20380D924C0
:1000F600CFB41A00EF5004C2E5D204020272D20154
:1001060080C6D20080C0D20280BCD2D580BAD205C9
:1001160080B47F201200612002077401B5190040E7
:10012600F1120026FF12006102009AD208D2068060
:1001360095120026FB120026FA120026F94A4B7089
:100146000679437A037BFF20022EE519602A7E009A
:100156008E8275830012039B60060EEE651A70F0A0
:10016600C2D5EBC0E0EAC0E0E9C0E0EE1202B9D0C9
:10017600E0F9D0E0FAD0E0FB120382FF60AAEBC000
:10018600E0EAC0E0E9C0E0120061D0E02401F9D065
:10019600E03400FAD0E0FBE51A0460DCD51AD98019
:1001A600877BFF7A0279B5D202809C79108002792A
:1001B60008C206C2088008D2D5790A8004790AC224
:1001C600D5E51A047002F51AE4FAFDFEFF120026C0
:1001D600FC7B08200113120026FD7B1030000A125A
:1001E6000026FE120026FF7B20EC3382D592D550E6
:1001F60013C3E43000069FFFE49EFEE42001039D46
:10020600FDE49CFCE4CBF8C201EC700CCFCECDCC67
:10021600E824F8F870F38017C3EF33FFEE33FEEDF2
:1002260033FDEC33FCEB33FB994002FB0FD8E9EBD3
:10023600300105F8D0E0C448B201C0E00AEC4D4EEA
:100246004F78207B0070C2EAB51A0040BCC0E012AD
:1002560002BBD0F0D0E0200104C4C0E0C4B201C0AB
:10026600F012004AD0F0D5F0EB02009A1203EA0130
:10027600375301B15801084C01044201B54F01BD85
:0F0286004401BD49011D4301C35501A74601A70E
:100295004501A747036350010C2D01102E01332B97
:1002A500011423013120034C2A00CC480000012B06
:1002B5003F3F3F00790AA2D5200314300509B91044
:1002C500020404B9080104A2D52006025001042045
:1002D50002689202B519005034C0E07F203003193E
:1002E5007F30A20272067205500F120312C202C2BB
:1002F50006C205C2087F30800F300503E9C0E01251
:100305000061300503D0E0F9D0E0B519CC30051710
:100315007F30B9100C1200617F583004077F788058
:1003250003B908031200613002057F2D0200617FC9
:10033500202008F87F2B2006F322920280CF286E1A
:10034500756C6C2900D2011200263001F8C20178C3
:100355001930D50108F60200CC2D5043495812003A
:10036500262403B405004001E490035E9312005275
:0D037500743A120052D2037519040201B14E
:10039B00BB010CE58229F582E5833AF583E0225017
:1003AB0006E92582F8E622BBFE06E92582F8E22261
:0D03BB00E58229F582E5833AF583E493227B
:1003C800BB010689828A83F0225002F722BBFE0114
:0203D800F3220E
:1003DA00FAE6FB0808E6F925F0F618E6CA3AF62224
:1003EA00D083D082F8E4937012740193700DA3A3A2
:1003FA0093F8740193F5828883E4737402936860B6
:06040A00EFA3A3A380DFB5
:00000001FF
