:030000000204FDFA
:0C04FD00787FE4F6D8FD75811F020544ED
:0407ED00D2A07F0512
:1007F100000000000000000000000000000000AE4A
:06080100071FEE70EB2260
:0F08C800D2A11207EDC2A17F051207F1C2A02233
:1007B5001207011207A312077BAD077F0112083A42
:0C07C500C2A11207EDD2A17F050207F1CE
:02070100AD0742
:10070300E4FCC2A07F051207F1ED30E704D2A1801B
:1007130002C2A17F051207F1D2A0ED25E0FD7F05FE
:090723001207F10CBC08DBC2A0B6
:01072C0022AA
:10077B00E4FC1207EDED25E0FD30A103430501C2BA
:0C078B00A07F051207F10CBC08E8AF05C8
:01079700223F
:0B0798001207011207A3AF03120701B4
:1007A3001207EDA2A1E433FDC2A07F051207F1AF4A
:0107B3000540
:0107B4002222
:10083A00C2A0EF24FF92A17F051207F11207EDC2B1
:08084A00A0D2A17F050207F115
:10085200AB05AA071208C87FA01207011207A3AFAF
:07086200021207980207C50E
:02086900AB07DB
:10086B001208C87FA01207981208C87FA11207B5FB
:02087B00AF05C7
:01087D002258
:10087E00AB071208C87F901207011207A37F401220
:05088E0007980207C5F8
:02089300AB07B1
:100895001208C87F901207981208C87F911207B5F1
:0208A500AF059D
:0108A700222E
:1007D100C0F9A4B0999282F880908883C6C0868EB1
:0C07E100BF7F407924301912027800100C
:10072D0001190001180001170102150000010B004D
:10073D0001140002090000021E0000021A0000044C
:08074D0010000000000108008B
:100589001208071208A87F011208937E007C007DDB
:100599006412030B7D3312031D8E0C8F0D7F107EA9
:1005A9002712082F7F031208937E007C007D6412B6
:1005B900030B7D3312031D8E0E8F0F7F107E2712C2
:1005C900082FAE09AF0AAB07AA06E4F9F87F407E07
:1005D900427D0FFC12064D8F138E128D118C10E582
:1005E90017B40108850C1C850D1D8006850E1C8518
:0D05F9000F1D12045112001E120609808908
:1006CE00EF24FB601314601914601F24037023E5DC
:1006DE00A0541F4480F5A022E5A0541F44A0F5A00D
:1006EE0022E5A0541F44C0F5A022E5A0541F44E00B
:0306FE00F5A02242
:1008A8007F041206CE7580FF0F1206CE5380AF224A
:10075600AE077F071206CE7580FF1F1206CEAF06C4
:100766007401A807088002C333D8FCF5807F0712FE
:0507760006CE8D80227B
:1008B8007F061206CEE4F5800F1206CE7580FF2261
:0E082100F5837F05E493FD1207567F647E0089
:0B082F00EF1FAC0670011E4C70F6229B
:10001E00E51960030200DD7D8EFF120828D3E50A84
:10002E00940FE5099427401AAE09AF0A7C277D107C
:10003E0012031D74D12FF58274073EF5837F0312D0
:10004E000825D3E50A94E7E50994034024AE09AFE9
:10005E000A7C037DE812031D7C007D0A12031D74C9
:10006E00D12DF58274073CF583E493FD7F041208CD
:10007E0028D3E50A9463E5099400401DAE09AF0A42
:10008E007C007D6412031D7C007D0A12031D74D159
:10009E002DF58274073C120821D3E50A9409E5096F
:1000AE0094004024AE09AF0A7C007D0A12031D7C29
:1000BE00007D0A12031D74D12DF58274073CF58361
:1000CE00E493FD7F06120828AE09AF0A0202EEE5A0
:1000DE0019640160030202847DC8FF1208287F3F65
:1000EE007E427D0F7C00AB13AA12A911A810D31269
:1000FE00044040257B407A42790F7800AF13AE1250
:10010E00AD11AC101203AE74D12FF58274073EF50B
:10011E0083E493FD7F011208287F9F7E867D017CFC
:10012E0000AB13AA12A911A810D3120440402E7BC3
:10013E00A07A8679017800AF13AE12AD11AC101211
:10014E0003AEE47B0AFAF9F81203AE74D12BF582F2
:10015E0074073AF583E493FD7F02120828E47F0FBB
:10016E007E27FDFCAB13AA12A911A810D3120440CE
:10017E00402DE47B107A27F9F8AF13AE12AD11AC17
:10018E00101203AEE47B0AFAF9F81203AE74D12B07
:10019E00F58274073AF583E493FD7F03120828E491
:1001AE007FE77E03FDFCAB13AA12A911A810D31290
:1001BE000440402DE47BE87A03F9F8AF13AE12AD9C
:1001CE0011AC101203AEE47B0AFAF9F81203AE7406
:1001DE00D12BF58274073AF583E493FD7F04120860
:1001EE0028E47F63FEFDFCAB13AA12A911A810D35D
:1001FE001204404025E47B64FAF9F8AF13AE12AD59
:10020E0011AC101203AEE47B0AFAF9F81203AE74C5
:10021E00D12BF58274073A120821E47F09FEFDFC0A
:10022E00AB13AA12A911A810D3120440402CE47BE0
:10023E000AFAF9F8AF13AE12AD11AC101203AEE418
:10024E007B0AFAF9F81203AE74D12BF58274073AD1
:10025E00F583E493FD7F06120828E47B0AFAF9F889
:10026E00AF13AE12AD11AC101203AE74D12BF582DA
:10027E0074073A0202FDE5196402600302030A7D67
:10028E00C1FF1208289007E1E493FD7F01120828B0
:10029E00E5179007D193FD7F02120828AE1CAF1D03
:1002AE007C007D6412031D74E32FF58274073E12E9
:1002BE000821AE1CAF1D7C007D6412031D7E007FE5
:1002CE000ACFCDCFCECCCE12031D74D12FF58274B2
:1002DE00073EF583E493FD7F06120828AE1CAF1D82
:1002EE007C007D0A12031D74D12DF58274073CF536
:0D02FE0083E493FD7F071208281208B82240
:0B08D7000000007F417E88DEFEDFFC99
:0108E20022F3
:1004510020B31A12082B20B30CE519B40205E4F5F8
:10046100198002051920B30512060680F820B2276B
:1004710012082B20B219E517B4010B751703850E6D
:100481001C850F1D8009751701850C1C850D1D200C
:10049100B20512060680F820B12912082B20B118E6
:1004A100AE0EAF0F7C007D0A12031DAD07E4FF12F3
:1004B1000852850E15850F1620B10812001E12066E
:1004C1000980F520B03512082B20B01F751401E505
:1004D10009FD7F011208521208D7E509FD7F0212BA
:1004E10008521208D785091E850A1F20B00812007C
:0C04F1001E12060980F5E4F514F50B223C
:10080700758916758BB0758D3C758CFF758AFFD20F
:0A0817008CD2A9D28ED2ABD2AF2250
:03000B0002000EE2
:0D000E00C0E0051BE51B7002051AD0E032B2
:03001B0002069149
:10069100C0E0C0D0758BB0758D3C0508E508B41479
:1006A1000F851A09851B0A751A00751B007508004C
:1006B100E514B40113050BE50BB4140CE518700532
:0D06C1007518018003751800D0D0D0E0320C
:0306060012001EC1
:100609007F041206CE7580FFE5187034E519700570
:100619005380FB800DE519B401055380F78003531E
:1006290080EFD3E50F9516E50E951540035380FE2F
:10063900D3E50A951FE509951E40055380FD800005
:040649007580FF2297
:10050900020589E493A3F8E493A34003F68001F27A
:1005190008DFF48029E493A3F85407240CC8C333F3
:10052900C4540F4420C8834004F456800146F6DFC2
:10053900E4800B010204081020408090072DE47E1E
:10054900019360BCA3FF543F30E509541FFEE493B7
:10055900A360010ECF54C025E060A840B8E493A37E
:10056900FAE493A3F8E493A3C8C582C8CAC583CAA9
:10057900F0A3C8C582C8CAC583CADFE9DEE780BE61
:0107550000A3
:10030B00EF8DF0A4A8F0CF8CF0A428CE8DF0A42E06
:02031B00FE22C0
:10031D00BC000BBE0029EF8DF084FFADF022E4CCC4
:10032D00F875F008EF2FFFEE33FEEC33FCEE9DEC8D
:10033D00984005FCEE9DFE0FD5F0E9E4CEFD22EDD3
:10034D00F8F5F0EE8420D21CFEADF075F008EF2F1D
:10035D00FFED33FD4007985006D5F0F222C398FD0E
:05036D000FD5F0EA22AB
:1003720075F008758200EF2FFFEE33FECD33CDCC42
:1003820033CCC58233C5829BED9AEC99E5829840C5
:100392000CF582EE9BFEED9AFDEC99FC0FD5F0D6A2
:1003A200E4CEFBE4CDFAE4CCF9A88222B800C1B9CC
:1003B2000059BA002DEC8BF084CFCECDFCE5F0CB0A
:1003C200F97818EF2FFFEE33FEED33FDEC33FCEB43
:1003D20033FB10D703994004EB99FB0FD8E5E4F9FE
:1003E200FA227818EF2FFFEE33FEED33FDEC33FCEB
:1003F200C933C910D7059BE99A4007EC9BFCE99ADF
:10040200F90FD8E0E4C9FAE4CCFB2275F010EF2F23
:10041200FFEE33FEED33FDCC33CCC833C810D70723
:100422009BEC9AE899400AED9BFDEC9AFCE899F85E
:0E0432000FD5F0DAE4CDFBE4CCFAE4C8F922F1
:10064D00C2D5E830E70FB2D5E4C39BFBE49AFAE4D8
:10065D0099F9E498F8EC30E717B2D5120683120336
:10066D00AEE4C39BFBE49AFAE499F9E498F88003AD
:10067D001203AE30D50DE4C39FFFE49EFEE49DFD55
:04068D00E49CFC22CB
:10044000EB9FF5F0EA9E42F0E99D42F0E89C45F012
:010450002289
:00000001FF
