:03000000020EBC31
:0C0EBC00787FE4F6D8FD758165020F0315
:0412E800D2A07F0A07
:1012EC00000000000000000000000000000000AE44
:0612FC00071FEE70EB225B
:0F13EA00D2A11212E8C2A17F0A1212ECC2A022F5
:1012CC001211DE1212BA121292AD077F01121336EE
:0C12DC00C2A11212E8D2A17F0A0212EC9B
:0211DE00AD075B
:1011E000E4FCC2A07F0A1212ECED30E704D2A18029
:1011F00002C2A17F0A1212ECD2A0ED25E0FD7F0A07
:091200001212EC0CBC08DBC2A0C8
:0112090022C2
:10129200E4FC1212E8ED25E0FD30A103430501C292
:0C12A200A07F0A1212EC0CBC08E8AF059B
:0112AE00221D
:0B12AF001211DE1212BAAF031211DEA2
:1012BA001212E8A2A1E433FDC2A07F0A1212ECAF17
:0112CA00051E
:0112CB002200
:10133600C2A0EF24FF92A17F0A1212EC1212E8C299
:08134600A0D2A17F0A0212EC03
:10134E00AB05AA071213EA7FA01211DE1212BAAF72
:07135E00021212AF0212DCC3
:02000E00AB073E
:100010001213EA7FA01212AF1213EA7FA11212CCC0
:02002000AF052A
:0100220022BB
:10137C00AB071213EA7F901211DE1212BA7F4012E1
:05138C0012AF0212DCAB
:02139100AB07A8
:101393001213EA7F901212AF1213EA7F911212CC4A
:0213A300AF0594
:0113A5002225
:041302007F057E00E5
:10130600EF1FAA0670011E4A600BE4FDEDC3940CA4
:0513160050EE0D80F710
:01131B0022AF
:02125600A907E6
:10125800E4FBC294E9139294121302D294E9C313E3
:0C126800F90BBB08ED7F057E00021306A9
:10131C00E4FBC294ECC313FCD294309403430480DA
:09132C001213020BBB08EBAF0425
:011335002295
:10120A00C200D2947F0C7E00121306C2947F507ED5
:10121A0000121306D2947F0A7E00121306A2949239
:06122A0000121302A200F5
:01123000229B
:100F480012120A7FCC1212567F4412125612120A3B
:100F58007FCC1212567FBE12125612131CA907120A
:100F6800131CAD07EDFEE9FBEEF550EBF551ED5422
:100F7800F87051E550C4F854F0C868F550E551C40C
:100F8800540F48F551E9540FFCE412022EE4FBFA21
:100F980079C8784012011EC004C005C006C007AE5B
:100FA80050AF517C007D6412057DAC06AD07E4129C
:100FB8000229D003D002D001D00012002D12026203
:040FC8008E508F5167
:010FCC002202
:101144002425642C25642E2564002325642C256421
:101154000D0A004552524F520D0A00C0F9A4B0992D
:101164009282F880908880C6C0868EBF7F407924A2
:07117400301912027800108F
:10108000013401012201012401023200230248003F
:101090001E02380023022A001E013B01013C01010F
:1010A0002800012900012F00013000012301013532
:1010B00000013100012E000A3D0000000000000088
:0910C000000000012700013A00C4
:1013A6001213CA1213BA121365121408120E2D1252
:0413B6000A9780F51D
:091408001211AE120C820211084F
:10136500759850438E01438E0475D78F75D6FD430E
:071375008E10D2ACD2AF22B2
:080003008F993099FDC299228A
:101231008B088A09890AAB08AA09A90A120525603F
:1012410013050AE50A7002050914F9120525FF12B2
:05125100000380E22211
:0300230002127452
:10127400C0E0C0D075D000C00030980B743D252765
:0E128400F8A6990527C298D000D0D0D0E0324D
:06141100AE0712000322E9
:100E2D00743C2527F8E6640A6003020EBBE53D64B9
:100E3D0053703DE53E64547037E53F640D7031E508
:100E4D0040640A702B85364D85374EAE25AF26FC96
:100E5D007D6412058F8E4F8F50AE25AF267C007DA1
:100E6D006412058F8C518D527BFF7A117944802F3E
:100E7D00E53D64507023E53EB4411EE53FB4521983
:100E8D00E540B441147BFF7A11794E85384D853993
:100E9D004E852A4F852B5080067BFF7A117957128C
:0E0EAD00068AE4F5277F0A783DE4F608DFFCAC
:010EBB002214
:1013BA00758901758C3C758AB0D28CD2A9D2AF22BC
:03000B000210CA16
:1010CA00C0E0C0D0758C3C758AB0E53B700D052F29
:1010DA00E52FB41406752801752F00E53C700D053F
:1010EA0030E530B414067529017530000531E53153
:0E10FA00B40A06752E01753100D0D0D0E03258
:10117B00EF24FB601314601914601F24037023E524
:10118B00A0541F4480F5A022E5A0541F44A0F5A055
:10119B0022E5A0541F44C0F5A022E5A0541F44E053
:0311AB00F5A0228A
:1013CA007F0512117BE4F5801F12117B7580FF22C5
:0413F9007F647E008F
:0B13FD00EF1FAC0670011E4C70F622C2
:1013DA007F0612117BE4F5800F12117B7580FF22C4
:101036007C007D6412058F7E007F0ACFCDCFCECC9B
:10104600CE12058F745F2FF58274113EF583E493FB
:03105600FD7F0615
:10105900AE077F0612117BAF067401A8070880024C
:10106900C333D8FCF5807F0712117B8D807FF47E16
:07107900011213FD0213DA5E
:100C8200E53464016003020DC7E5226401705F90E0
:100C9200116B93FDE4FF121059AE25AF267C037D44
:100CA200E812058F745F2FF58274113EF583E49389
:100CB200FD7F04121059AE25AF267C037DE8120594
:100CC2008F7E007F64CFCDCFCECCCE12058F7471D4
:100CD2002FF58274113EF583E493FD7F05121059BE
:100CE200AE25AF26121036AE25AF26020E13E52230
:100CF200640270187DC7FF121059AE36AF377C0000
:100D02007D0A121047AE36AF37020E13E522640396
:100D12006003020E2C7DC8FF121059D3E52D940FEB
:100D2200E52C9427401DAE2CAF2D7C277D1012059B
:100D32008F745F2FF58274113EF583E493FD7F0378
:100D4200121059D3E52D94E7E52C9403402AAE2CDA
:100D5200AF2D7C277D1012058F7E037FE8CFCDCF8C
:100D6200CECCCE12058F745F2FF58274113EF583BF
:100D7200E493FD7F04121059D3E52D9463E52C947E
:100D820000402AAE2CAF2D7C037DE812058F7E0039
:100D92007F64CFCDCFCECCCE12058F745F2FF5827C
:100DA20074113EF583E493FD7F05121059D3E52DAE
:100DB2009409E52C94004007AE2CAF2D121036AEEC
:100DC2002CAF2D804CE5346402705F7D8CFF1210D5
:100DD20059E5246401701B90116093FD7F0312108A
:100DE20059AE48AF497C007D0A121047AE48AF4960
:100DF200801FE5246402703290116193FD7F03121B
:100E02001059AE32AF337C007D0A121047AE32AFBA
:100E1200337C007D0A12058F745F2DF58274113CBC
:0B0E2200F583E493FD7F0712105922B6
:100A9700C2B3D2B4D2B5D2B220B5591213F920B528
:100AA70053E4F53B20B50512140880F8753B01E4C3
:100AB700F52FE528B40115E4F528F52CF52DFDFFF4
:100AC70012134EE4FD7F0112134E8028E4F528E54A
:100AD70034B4010EE522B403057522018016052200
:100AE7008012E534B4020DE524B4010575240280B3
:100AF7000375240120B45E1213F920B45820B405FD
:100B070012140880F8E5346402704AE524B4012120
:100B1700C3E5499402E548940050087548007549B3
:100B270063803274FE2549F54974FF3548F54880DE
:100B370024E524B4021FC3E5339405E5329400503D
:100B470008753200753363800C74FB2533F53374F5
:100B5700FF3532F532C2B2D2B4D2B5D2B330B50313
:100B6700020C271213F930B503020C27E4F53C20D9
:100B7700B50512140880F8753C01E4F530E529B491
:100B87000113E4F529E5237006752301020C27E418
:100B9700F523020C27E4F529E534B401087534027E
:100BA700752201807BE53464027075753401752404
:100BB70001E52B65497004E52A654860047F0180DB
:100BC700027F00E53965337004E538653260047EDD
:090BD7000180027E00EE4F603B3C
:100BE000052DE52D7002052CD394FFE52C940040D3
:100BF0001AE52CF54B754A00854B4EE535654E6080
:100C00000A854E35AD357F0112134E754C00852D8A
:0B0C10004D854D4FAD4FE4FF12134E19
:100C1B0085323885333985482A85492B20B45712BC
:100C2B0013F920B45120B40512140880F8E534648C
:100C3B00027043E524B4011DD3E5499461E5489462
:100C4B00004006E4F548F5492274022549F549E4CC
:100C5B003548F54822E524B4021CD3E533945EE510
:100C6B003294004006E4F532F5332274052533F552
:070C7B0033E43532F53222AB
:100FCD007F0AC29075E9F375F9FFD2DEAE071FEE09
:100FDD00601230DFFDA290B3929075E9F375F9FFC1
:100FED00C2DF80E8C2DEE4F5E9F5F9D2DE30910327
:100FFD0030DFFAC2DE30DF09C2DF753600753763C8
:10100D0022AFF9EFFEADE97C00E42DFFEC3EFEAD25
:10101D0007FCE41202297B967A43798B783C120106
:08102D001E1202628E368F379D
:011035002298
:1011AE00120F488E258F26E52EB40106120FCDE4C0
:1011BE00F52EE523B40113D3E5379533E536953295
:1011CE0040047FCC80067F6680027F1512137C223E
:101108007F0412117B7580FFAE2AAF2B7C007D64B3
:1011180012057DD3E5269FE5259E40037580FEC315
:10112800E5379539E536953850035380FDE523B406
:0C11380001035380FB7FF47E010213FDD5
:100026000202CEE86480F8E933E83360110460F038
:10003600ED33EC337009E8FCE9FDEAFEEBFF220440
:1000460060DED3EB9FEA9EE99DE8C2E78CF0C2F73B
:1000560095F0400CE8CCF8E9CDF9EACEFAEBCFFB07
:1000660012029985D0F05804700320D5B3E80470C5
:10007600075002B2D50202D892D5EC0460F7E4CC60
:10008600C0E0C398F8603B94186008400DD0E0FBD0
:100096000202B0E4FBFAC9FC8028E830E406E4C9B1
:1000A600FBE4CAFCE830E305E4C9CACBFCE8540724
:1000B6006010F8C3E913F9EA13FAEB13FBEC13FC2F
:1000C600D8F130F52FC3E49CFCEF9BFFEE9AFEEDD2
:1000D60099FDD0E0FBEF4E4D4C701222DB0302027D
:1000E600D5EC2CFCEF33FFEE33FEED33FDED30E7C0
:1000F600EB0202B0EF2BFFEE3AFEED39FDD0E0FB4E
:1001060050130BBB00030202D8ED13FDEE13FEEFF6
:0801160013FFEC13FC0202B020
:10011E00EC4D6011E8497017ED33EC3304600DE4DB
:10012E00FCFFFEFD22E933E8330470F80202CE1222
:10013E00029958046009E4CC248150062850090223
:10014E0002D82840030202D5C0E0EB4A7044B980C1
:10015E0006D0E0FB0202C4EF4E701CBD8008EBFF20
:10016E00EAFEE9FD80EBE98DF0A4FEE5F002020760
:10017E00E9CDF9EAFEEBFFEF89F0A4FCE5F0CE89BC
:10018E00F0A42EFFE435F0CD89F0A42DFEE435F079
:10019E008067EF4E7005BD80D780C3EF8BF0A4ACA7
:1001AE00F0EE8BF0A42CFCE435F0F8EF8AF0A42CE2
:1001BE00E5F038FCE433CB8DF0A42CFCE5F03BF8F5
:1001CE00EE8AF0A42CFCE5F038F8E433CF89F0A4E5
:1001DE002CFCE5F038CF3400CE89F0A42FFFE5F0EB
:1001EE003EFEE433C98DF0A42EFEE5F039CD8AF043
:1001FE00A42FFFE5F03EFEE43DFD33D0E0FB5007BB
:10020E000BBB000F0202D8EC2CFCEF33FFEE33FEDB
:06021E00ED33FD0202B009
:1002240075F020800E75F010800575F0087D007E55
:10023400007F003392D530D5031205E4EC3340102F
:10024400EF33FFEE33FEED33FDEC33FCD5F0ED225E
:0E025400E5F0247EA2D513CC92E7CDCEFF229A
:10026200EDD2E7CD33EC3392D524814006E4FFFE94
:10027200FDFC22FCE4CFCECDCC24E0501174FF80F3
:10028200EDC3CC13CCCD13CDCE13CECF13CF047090
:07029200F030D5DE0205E4A7
:10062800E561244DF8E6056122784A300702784DE5
:10063800E475F0011205F20205252000EB7F2ED2A9
:10064800008018EF540F2490D43440D4FF30040BAA
:10065800EF24BFB41A0050032461FFE5626002155D
:10066800620565E5657002056430070D784AE47532
:10067800F0011205F2EF02056B0214117403D207A0
:100688008003E4C207F5618B4A8A4B894CE4F56222
:10069800F564F565E56260077F2012066380F575ED
:1006A80063FFC201C200C202C203C205C206C20879
:1006B800120631FF700D3007057F00120674AF6512
:1006C800AE6422B4255FC2D5C204120631FF24D01D
:1006D800B40A00501A75F00A786230D50508B6FFDA
:1006E8000106C6A426F620D5047002D20380D924B8
:1006F800CFB41A00EF5004C2E5D204020961D20156
:1007080080C6D20080C0D20280BCD2D580BAD205C1
:1007180080B47F201206632002077401B56200408E
:10072800F1120628FF12066302069CD208D2068040
:1007380095120628FB120628FA120628F94A4B7069
:100748000679587A0A7BFF20022EE562602A7E002D
:100758008E8275830012053E60060EEE656370F0AA
:10076800C2D5EBC0E0EAC0E0E9C0E0EE1209C1D0B2
:10077800E0F9D0E0FAD0E0FB120525FF60AAEBC053
:10078800E0EAC0E0E9C0E0120663D0E02401F9D055
:10079800E03400FAD0E0FBE5630460DCD563D9807F
:1007A80087D20280A21209A460F7E56370010412DF
:1007B80002E3A963600DE563600914F563120A4B4F
:1007C800EF60F3EA30E702F404C3995077EAF425BE
:1007D800630430E701E404F563800D1209A460C1E5
:1007E800EA056325631202E3EA7860F630E701E47C
:1007F800256304D56304200501141209C1E4C0E08F
:10080800120A4B7860E6601320E70714F612064BCD
:10081800802204F6D0E014C0E07F0012064BE563A6
:1008280060071206421563800B300503120642D09A
:10083800E002069CD0E00480C51209A460A0E5632C
:10084800041202E37860EAF6E56320050260010419
:0508580024041209C197
:10085D0074FF04C0E0120A4B12064BE5632005023B
:10086D006003120642D0E0B563E87F451206557865
:10087D0060E67F2B30E7047F2DF404C0E0120663A1
:10088D00D0E075F00A84C0F012064CD0E012064C90
:10089D0002069C791080027908C206C2088008D22F
:1008AD00D5790A8004790AC2D5E563047002F5632F
:1008BD00E4FAFDFEFF120628FC7B08200113120648
:1008CD0028FD7B1030000A120628FE120628FF7B39
:1008DD0020EC3382D592D55013C3E43000069FFF30
:1008ED00E49EFEE42001039DFDE49CFCE4CBF8C2F4
:1008FD0001EC700CCFCECDCCE824F8F870F3801756
:10090D00C3EF33FFEE33FEED33FDEC33FCEB33FB86
:10091D00994002FB0FD8E9EB300105F8D0E0C4484F
:10092D00B201C0E00AEC4D4E4F78207B0070C2EA58
:10093D00B5630040BCC0E01209C3D0F0D0E0200187
:10094D0004C4C0E0C4B201C0F012064CD0F0D5F022
:10095D00EB02069C12060207395308A058070A4CF1
:10096D0007064208A44F08AC4408AC49071F4308CA
:10097D00B25507E34608414507AD470A7850070EC3
:10098D002D07122E07352B0716230733200A612A50
:10099D0006CE480000072DE563B4FF03756306120C
:1009AD000628FC120628FD120628FE120628FF78DE
:1009BD0059020312790AA2D5200314300509B91082
:1009CD00020404B9080104A2D52006025001042036
:1009DD0002689202B562005034C0E07F20300319E6
:1009ED007F30A20272067205500F120A1AC202C29D
:1009FD0006C205C2087F30800F300503E9C0E01242
:100A0D000663300503D0E0F9D0E0B562CC300517B0
:100A1D007F30B9100C1206637F583004077F788041
:100A2D0003B908031206633002057F2D0206637FAA
:100A3D00202008F87F2B2006F322920280CF7F0022
:100A4D00B4070050052459F8E6FF22286E756C6C2A
:100A5D002900D2011206283001F8C201786230D582
:100A6D000108F60206CE2D504349581206282403DC
:100A7D00B405004001E4900A7393120654743A12BF
:0A0A8D000654D2037562040208A0AB
:10029900E9D2E7C933E833F892D5EDD2E7CD33ECAB
:0702A90033FC5002B2D52224
:1002B000EC30E7100FBF000C0EBE00080DBD0004AF
:1002C0000BEB6014A2D5EB13FCED92E7FD2274FF5B
:1002D000FCFDFEFF22E480F8A2D574FF13FC7D80B4
:0302E000E480EFC8
:1002E300F920E72824F950037907E4F42402FB18E2
:1002F300DBFDE624FB5014E9600DE4F618E604F692
:0F030300B40A08E4F6D9F57401F60A22C2D5222D
:10031200ED33EC3392D5FA602AB4FF33EDC2E77BBA
:10032200FF60067A037937E4227A03794020D50404
:100332007A03793B224E614E002B494E46002D49ED
:100342004E4600E47A08F608DAFC7B00740722E8DD
:10035200C0E0ECC0E0EDC0E0EEC0E0EFC0E0EA7566
:10036200F010A4CAABF075F04DA42BFBE435F0FC01
:10037200EA2410FAEB34C5FBEC34D9FCEDC2E7FFFA
:1003820075F056A4F42411C5F0F434C58FF0A42AF4
:10039200E5F03BE43CF620E7141204E5D0E0FFD0A0
:1003A200E0FED0E0FDD0E0FC1204188014F4041248
:1003B20004E5D0E0FFD0E0FED0E0FDD0E0FC120189
:1003C2001ED0E0F8E6FAEDD2E7CD33EC332482FB1F
:1003D200E4C3CF33CFCE33CECD33CD33DBF37B0784
:1003E20075F00A846004F6081B0AE5F0F6088FF03F
:1003F200740AA4FFACF08EF0740AA42CFEACF05088
:10040200010C8DF0740AA42CFDE435F0F608DBDE55
:030412007407224A
:100415000202D8EC5D046005E8590470030202CEBF
:10042500120299580460F6EC4860F2EC7004FDFE87
:10043500FF22C860DB2481C85009C39860025006BA
:100445000202D59850CAF582E9294B4A7005AB825C
:100455000202C475F0007C1A7880C3EF9BEE9AED1A
:1004650099400DC3EF9BFFEE9AFEED99FDE842F032
:10047500DC23ACF0D0E0FFD0E0FED0E0FDAB822085
:10048500E7101BEB60BAEC2CFCEF33FFEE33FEED0F
:1004950033FD0202B0E803F830E705C0F075F0005F
:1004A500EF2FFFEE33FEED33FD40B830E7C280AAF3
:1004B5003F8000004120000042C80000447A00004F
:1004C500461C400047C35000497424004B189680D1
:1004D5004CBEBC205A0E1BCA6753C21C749DC5AEC8
:1004E500FB60065407601C2323120513EB54386088
:1004F500091204FF12050E12011EECF8EDF9EEFAD1
:10050500EFCB22EB12050E80F1543803241C900426
:10051500B5FE93FC0EEE93FD0EEE930ECE93FF22E9
:100EC8000213A6E493A3F8E493A34003F68001F287
:100ED80008DFF48029E493A3F85407240CC8C3332B
:100EE800C4540F4420C8834004F456800146F6DFFA
:100EF800E4800B0102040810204080901080E47EFA
:100F0800019360BCA3FF543F30E509541FFEE493EE
:100F1800A360010ECF54C025E060A840B8E493A3B5
:100F2800FAE493A3F8E493A3C8C582C8CAC583CAE0
:100F3800F0A3C8C582C8CAC583CADFE9DEE780BE98
:0110C9000026
:10052500BB010689828A83E0225002E722BBFE02D4
:09053500E32289828A83E4932207
:10053E00BB010CE58229F582E5833AF583E0225072
:10054E0006E92582F8E622BBFE06E92582F8E222BC
:0D055E00E58229F582E5833AF583E49322D6
:10056B00BB010689828A83F0225002F722BBFE016F
:02057B00F32269
:10057D00EF8DF0A4A8F0CF8CF0A428CE8DF0A42E92
:02058D00FE224C
:10058F00BC000BBE0029EF8DF084FFADF022E4CC50
:10059F00F875F008EF2FFFEE33FEEC33FCEE9DEC19
:1005AF00984005FCEE9DFE0FD5F0E9E4CEFD22ED5F
:1005BF00F8F5F0EE8420D21CFEADF075F008EF2FA9
:1005CF00FFED33FD4007985006D5F0F222C398FD9A
:0505DF000FD5F0EA2237
:0E05E400C3E49FFFE49EFEE49DFDE49CFC2228
:1005F200FAE6FB0808E6F925F0F618E6CA3AF6220A
:10060200D083D082F8E4937012740193700DA3A387
:1006120093F8740193F5828883E47374029368609B
:06062200EFA3A3A380DF9B
:00000001FF
