:03000000020CEF00
:0C0CEF00787FE4F6D8FD758161020D36B7
:0410F400D2A07F0AFD
:1010F800000000000000000000000000000000AE3A
:06110800071FEE70EB2250
:0F11CF00D2A11210F4C2A17F0A1210F8C2A022FE
:1010BC00120FF31210AA121082AD077F0112000357
:0C10CC00C2A11210F4D2A17F0A0210F899
:020FF300AD0748
:100FF500E4FCC2A07F0A1210F8ED30E704D2A1800C
:1010050002C2A17F0A1210F8D2A0ED25E0FD7F0AE9
:091015001210F80CBC08DBC2A0AB
:01101E0022AF
:10108200E4FC1210F4ED25E0FD30A103430501C29A
:0C109200A07F0A1210F80CBC08E8AF05A3
:01109E00222F
:0B109F00120FF31210AAAF03120FF3A0
:1010AA001210F4A2A1E433FDC2A07F0A1210F8AF15
:0110BA000530
:0110BB002212
:10000300C2A0EF24FF92A17F0A1210F81210F4C2CB
:08001300A0D2A17F0A0210F83F
:10114200AB05AA071211CF7FA0120FF31210AAAF9C
:071152000212109F0210CCF5
:02117000AB07CB
:101172001211CF7FA012109F1211CF7FA11210BCAB
:02118200AF05B7
:011184002248
:10118500AB071211CF7F90120FF31210AA7F4012F6
:05119500109F0210CCC8
:02119A00AB07A1
:10119C001211CF7F9012109F1211CF7F911210BCA1
:0211AC00AF058D
:0111AE00221E
:1010D800C0F9A4B0999282F880908880C6C0868EA4
:0C10E800BF7F40792430191202780010FC
:100EFD000156010150010126010155010257000063
:100F0D00015328022D000001611E02290154042104
:100F1D003F800000012B00015B00015A00015200CF
:100F2D00014F00015100012C00012F00015C000157
:0B0F3D003000015401012500015900A3
:101159001211BF1211AF120F8A12088B1204C11299
:071169000E60120EAF80EFD3
:100F8A00120D7B8E278F28E55264017026F55212C6
:100F9A000C4F8E578F58E55BB40115E55C25E024AC
:100FAA0032F8A65708A658055CE55CB40D05800022
:060FBA00E4F55C020B4EA1
:1011AF00758910758BB0758D3CD28ED2ABD2AF22B4
:03001B00020E04CE
:100E0400C0E0C0D0758BB0758D3C052C052FE52F47
:100E1400B40210752F00E554B40105755400800325
:100E2400755401E52CB40A06752C00755201E55B76
:100E3400B40110054FE54FB47809755B00754F0098
:100E4400753001E525B4010C0551E551B428087548
:0C0E540059018003755100D0D0D0E0326D
:100FC000EF24FB601314601914601F24037023E5E1
:100FD000A0541F4480F5A022E5A0541F44A0F5A012
:100FE00022E5A0541F44C0F5A022E5A0541F44E010
:030FF000F5A02247
:1011BF007F05120FC0E4F5801F120FC07580FF224C
:10104600AE077F06120FC0AF067401A8070880021C
:0E105600C333D8FCF5807F07120FC08D8022B7
:0411DE007F647E00AC
:0B11E200EF1FAC0670011E4C70F622DF
:100F4900AE57AF587C007D6412047D7E007F0ACFC6
:100F5900CDCFCECCCE12047D74D82FF58274103E3D
:100F6900F583E47F0693FD1210467F647E0012111B
:010F7900E295
:100F7A007F06120FC0E4F5800F120FC07580FF22A2
:100C4F007D0AC29075E9F475F9FFD2DEAC051DEC93
:100C5F00600F30DFFDB29075E9F475F9FFC2DF80E8
:100C6F00EBC2DEE4F5E9F5F9D2DE30910330DFFABD
:100C7F00C2DE30DF04C2DF8063E529C313FCE52A3F
:100C8F0013FDE412033A7B177AB779D17838120142
:100C9F0016C004C005C006C007AFF9EFFEADE97C72
:100CAF0000E42DFDEC3EFCE412033AD003D002D059
:100CBF0001D000120116C004C005C006C007AC2D3C
:100CCF00AD2EEC12033AD003D002D001D0001200A7
:0F0CDF0025120373C3EE648094805003E4FEFF7C
:010CEE0022E3
:100B4E00E53064016003020C4EE55B6003020C4E5F
:100B5E00E55A64016003020C4EE55664016003021F
:100B6E000C4EF55AF508E50825E02432F8E6FE08A5
:100B7E00E6D3940AEE94005012E4FFFE7D4C7C42C4
:100B8E00AB24AA23A922A821020C38E50825E024CB
:100B9E0032F8E6FE08E6C3945AEE9400E4400DF5F2
:100BAE0060F55F755E7F755D43020C43FFFE7D1041
:100BBE007C41AB24AA23A922A821120116E4FBFA38
:100BCE0079A078C0120025E4FBFAF9784112021FD1
:100BDE00C004C005C006C007E50825E02432F8E6CB
:100BEE00FE08E6FF7C007D50120428AC06AD07E43B
:100BFE0012033AC004C005C006C007AB24AA23A93D
:100C0E0022A821E4FFFE7DA07C40120021D003D05B
:100C1E0002D001D000120116D003D002D001D000B4
:100C2E00120025E4FBFA794C78421201168F608E81
:100C3E005F8D5E8C5D0508E508640E6003020B7423
:010C4E002283
:1004C100E55664016003020668AE27AF28FC7D642F
:1004D10012042874D82FF58274103EF583E493FD3D
:1004E100E4FF120F70AE27AF287C007D6412042850
:1004F1007E007F0ACFCDCFCECCCE12042874EA2F56
:10050100F58274103EF583E47F01120F6EAE27AFC2
:10051100287C007D0A12042874D82DF58274103CC1
:10052100F583E493FD7F02120F709010E8E493FDD0
:100531007F03120F70E55064017074D3E55894E79E
:10054100E55764809483401DAE57AF587C037DE826
:1005510012047D74D82FF58274103EF583E493FD67
:100561007F04120F70D3E5589463E557648094803B
:10057100402AAE57AF587C037DE812047D7E007F90
:1005810064CFCDCFCECCCE12047D74D82FF582743A
:10059100103EF583E493FD7F05120F70D3E5589467
:1005A10009E557648094804003120F49020661E512
:1005B100506402600302088AD3E55894E7E5576462
:1005C100809483401DAE57AF587C037DE812047DB3
:1005D10074D82FF58274103EF583E493FD7F0412E5
:1005E1000F70D3E5589463E55764809480402AAE38
:1005F10057AF587C037DE812047D7E007F64CFCD28
:10060100CFCECCCE12047D74EA2FF58274103EF564
:1006110083E493FD7F05120F70C3E5589464E55799
:1006210064809480502AAE57AF587C037DE8120451
:100631007D7E007F64CFCDCFCECCCE12047D74EA17
:100641002FF58274103EF583E493FD7F05120F7040
:10065100D3E5589409E557648094804003120F490B
:10066100AE57AF58020709E556640270507D8CFF02
:10067100120F70E5266401701A9010D993FD7F0165
:10068100120F70E55375F00A849010D8120F6CE5C3
:10069100538021E5266402600302088A9010DA93F0
:1006A100FD7F01120F70E56175F00A849010D81278
:1006B1000F6CE56175F00A84E5F0020883E5566484
:1006C10003600302088A9010E793FDE4FF120F70A4
:1006D100E5556401600302077D9010D993FD7F0108
:1006E100120F70C3E52D648094804031D3E52E94C0
:1006F10009E52D64809480400BAE2DAF2E7C007DEA
:100701000A120F5EAE2DAF2E7C007D0A12047D749D
:10071100D82DF58274103CF583E4020883C3E52DDE
:1007210064809480400302088AE52E75F0FFA4F5E9
:1007310031D3648094899010E84021E493FD7F05D2
:10074100120F70E53175F00A1203F4FF3395E0FEE4
:1007510074D82FF58274103EF5838000120F6BE57B
:100761003175F00A1203F4AFF0EF3395E0FE74D85F
:100771002FF58274103EF583E4020883E555640287
:10078100600302082B9010DA93FD7F01120F70D3E2
:10079100E52A94E7E5299403401DAE29AF2A7C039D
:1007A1007DE812042874D82FF58274103EF583E495
:1007B10093FD7F04120F70D3E52A9463E529940019
:1007C100402AAE29AF2A7C037DE81204287E007FEF
:1007D10064CFCDCFCECCCE12042874D82FF582743D
:1007E100103EF583E493FD7F05120F70D3E52A9443
:1007F10009E5299400401BAE29AF2A7C007D6412D3
:1008010004287E007F0ACFCDCFCECCCE1204281291
:100811000F61AE29AF2A7C007D0A12042874D82DFD
:10082100F58274103CF583E48058E55564037059F2
:10083100FFFE7D207C41AB24AA23A922A82112011D
:10084100161203738F4E9010DBE493FD7F01120F9C
:1008510070E54E75F00A1203F4FF3395E0FE74EA79
:100861002FF5827410120F68E54E75F00A1203F429
:10087100AFF0EF3395E0FE74D82FF58274103EF59A
:0A08810083E493FD7F07120F70223D
:10088B00E55B64017003020B4DC2C2D2B2D2B3D28C
:10089B00C420B3441211DE20B33E20B23B1211DE52
:1008AB0020B20375250120B32A20B227120F8A121A
:1008BB0004C1120E60120EAFE559B401E975611E49
:1008CB00752901752A54E4F524F5237522807521C9
:1008DB003F80D3E4F525F559C2B3D2B2D2C2D2C40C
:1008EB0020C4361211DE20C425E556B40108755616
:1008FB00027550018018E556B4020875560375262B
:10090B0001800BE556B4030675560175550130C4CD
:10091B0003020A0E1204C180F530C203020A0E1242
:10092B0011DE30C203020A06E556B40106755B01FF
:10093B00020A06E55664027032E526B40114E5534B
:10094B00B45A0675530A020A06740A2553F5530264
:10095B000A06E52664026003020A06E561B4500646
:10096B00E4F561020A060561020A06E556640360B6
:10097B0003020A06E555B4011DE52E645A452D7098
:10098B0008752DFF752EA680727405252EF52EE4A5
:10099B00352DF52D8065E555B4021FE52AB4060DFE
:1009AB00E529B42708752900752A0A804E740A2593
:1009BB002AF52AE43529F5298041E555B4033CE4B1
:1009CB00FFFEFD7C40AB24AA23A922A8211202BC66
:1009DB00700E7524CD7523CC7522CC75213D801BF3
:1009EB00AF24AE23AD22AC217BCD7ACC79CC783D34
:1009FB001200258F248E238D228C2120C2051204F8
:100A0B00C180F8D2B3C2B2D2C2D2C420C44A12112E
:100A1B00DE20C439E556B4010FE550B4010575501D
:100A2B0002802A7550018025E556B4020FE526B4E5
:100A3B00010575260280167526018011E556B40353
:100A4B000CE555B403057555018002055530C403FB
:100A5B00020B4D1204C180F530C203020B4D121173
:100A6B00DE30C203020B4DE556B40106755A010286
:100A7B000B45E55664027031E526B40114E553B419
:100A8B000A0675535A020B4574F62553F553020BA0
:100A9B0045E52664026003020B45E561700675614E
:100AAB0050020B451561020B45E5566403600302CA
:100ABB000B45E555B40120E52EB4A60DE52DB4FF8D
:100ACB0008752D00752E5A807174FB252EF52E742A
:100ADB00FF352DF52D8063E555B4021EE52A640A1A
:100AEB0045297008752927752A06804E74F6252A24
:100AFB00F52A74FF3529F5298040E555B4033B7F72
:100B0B00CD7ECC7DCC7C3DAB24AA23A922A821127F
:100B1B0002BC700BF524F523F522752140801BAF29
:100B2B0024AE23AD22AC217BCD7ACC79CC783D128F
:100B3B0000218F248E238D228C2120C2051204C10B
:030B4B0080F8220D
:100E60007F04120FC07580FFE55664017025C3E54D
:100E70005894FFE557648094804008120FC0E4F551
:100E800080800A7F04120FC0E558F4F5807FF47E5D
:100E9000018018E556B403167F04120FC0E55470A4
:0F0EA00004C2808002D2807F647E001211E222A1
:100EAF00AF537E00EF24FBFDEE34FFFCD3ED9558DE
:100EBF00E5576480F8EC648098502AEF2405FFEE24
:100ECF0033FEC3EF9558E5576480F8EE6480984081
:100EDF0014D3E5289561E527940050097F05120F7B
:0E0EEF00C0758010227F05120FC0E4F580222E
:04110E007F057E00DB
:10111200EF1FAA0670011E4A600BE4FDEDC3940C9A
:0511220050EE0D80F706
:0111270022A5
:02106400A907DA
:10106600E4FBC294E913929412110ED294E9C313CD
:0C107600F90BBB08ED7F057E0002111293
:10112800E4FBC294ECC313FCD294309403430480D0
:0911380012110E0BBB08EBAF0411
:01114100228B
:10101F00C200D2947F0C7E00121112C2947F507EB8
:10102F0000121112D2947F0A7E00121112A2949212
:06103F000012110EA200D8
:011045002288
:100D7B0012101F7FCC1210647F4412106412101FCC
:100D8B007FCC1210647FBE121064121128A90712B7
:100D9B0011287508008F09E509750900F508E94266
:100DAB0009E50854F87051E508C4F854F0C868F523
:100DBB0008E509C4540F48F509E9540FFCE4120384
:100DCB003FE4FBFA7920783F120116C004C005C03E
:100DDB0006C007AE08AF097C007D0A120416AC06EC
:100DEB00AD07E412033AD003D002D001D0001200B9
:080DFB00251203738E088F0915
:010E030022CC
:10001E000203DFE86480F8E933E83360110460F02E
:10002E00ED33EC337009E8FCE9FDEAFEEBFF220448
:10003E0060DED3EB9FEA9EE99DE8C2E78CF0C2F743
:10004E0095F0400CE8CCF8E9CDF9EACEFAEBCFFB0F
:10005E001203AA85D0F05804700320D5B3E80470BB
:10006E00075002B2D50203E992D5EC0460F7E4CC56
:10007E00C0E0C398F8603B94186008400DD0E0FBD8
:10008E000203C1E4FBFAC9FC8028E830E406E4C9A7
:10009E00FBE4CAFCE830E305E4C9CACBFCE854072C
:1000AE006010F8C3E913F9EA13FAEB13FBEC13FC37
:1000BE00D8F130F52FC3E49CFCEF9BFFEE9AFEEDDA
:1000CE0099FDD0E0FBEF4E4D4C701222DB03020384
:1000DE00E6EC2CFCEF33FFEE33FEED33FDED30E7B7
:1000EE00EB0203C1EF2BFFEE3AFEED39FDD0E0FB44
:1000FE0050130BBB00030203E9ED13FDEE13FEEFED
:08010E0013FFEC13FC0203C116
:10011600EC4D6011E8497017ED33EC3304600DE4E3
:10012600FCFFFEFD22E933E8330470F80203DF1218
:1001360003AA58046009E4CC248150062850090219
:1001460003E92840030203E6C0E0EB4A7044B980A5
:1001560006D0E0FB0203D5EF4E701CBD8008EBFF16
:10016600EAFEE9FD80EBE98DF0A4FEE5F00201FF71
:10017600E9CDF9EAFEEBFFEF89F0A4FCE5F0CE89C4
:10018600F0A42EFFE435F0CD89F0A42DFEE435F081
:100196008067EF4E7005BD80D780C3EF8BF0A4ACAF
:1001A600F0EE8BF0A42CFCE435F0F8EF8AF0A42CEA
:1001B600E5F038FCE433CB8DF0A42CFCE5F03BF8FD
:1001C600EE8AF0A42CFCE5F038F8E433CF89F0A4ED
:1001D6002CFCE5F038CF3400CE89F0A42FFFE5F0F3
:1001E6003EFEE433C98DF0A42EFEE5F039CD8AF04B
:1001F600A42FFFE5F03EFEE43DFD33D0E0FB5007C3
:100206000BBB000F0203E9EC2CFCEF33FFEE33FED1
:06021600ED33FD0203C1FF
:10021C000203E9EC5D046005E8590470030203DF96
:10022C001203AA580460F6EC4860F2EC7004FDFE70
:10023C00FF22C860DB2481C85009C39860025006B5
:10024C000203E69850CAF582E9294B4A7005AB8245
:10025C000203D575F0007C1A7880C3EF9BEE9AED03
:10026C0099400DC3EF9BFFEE9AFEED99FDE842F02D
:10027C00DC23ACF0D0E0FFD0E0FED0E0FDAB822080
:10028C00E7101BEB60BAEC2CFCEF33FFEE33FEED0A
:10029C0033FD0203C1E803F830E705C0F075F00048
:1002AC00EF2FFFEE33FEED33FD40B830E7C280AAEE
:1002BC0074F8CC6480CCC86480C8F58204604FC3E9
:1002CC00EB9FF5F0EA9E42F0E99D42F0E89C45F088
:1002DC00603C501DE5825FFFE582D313CB5BCBF412
:1002EC002B5582FB50280ABA002409B9002008803B
:1002FC001DE5825BFBE582D313CF5FCFF4C3132FD5
:10030C005582FF50090EBE00050DBD00010CC3EB5C
:10031C009FF5F0EA9E42F0E99D42F0E89C45F060C2
:09032C0007CC4820E701B3EC22E4
:1003350075F020800E75F010800575F0087D007E43
:10034500007F003392D530D5031204B3EC3340104F
:10035500EF33FFEE33FEED33FDEC33FCD5F0ED224C
:0E036500E5F0247EA2D513CC92E7CDCEFF2288
:10037300EDD2E7CD33EC3392D524814006E4FFFE82
:10038300FDFC22FCE4CFCECDCC24E0501174FF80E1
:10039300EDC3CC13CCCD13CDCE13CECF13CF04707E
:0703A300F030D5DE0204B3C7
:1003AA00E9D2E7C933E833F892D5EDD2E7CD33EC99
:0703BA0033FC5002B2D52212
:1003C100EC30E7100FBF000C0EBE00080DBD00049D
:1003D1000BEB6014A2D5EB13FCED92E7FD2274FF49
:1003E100FCFDFEFF22E480F8A2D574FF13FC7D80A2
:0303F100E480EFB6
:100CFB00021159E493A3F8E493A34003F68001F2A5
:100D0B0008DFF48029E493A3F85407240CC8C333F9
:100D1B00C4540F4420C8834004F456800146F6DFC8
:100D2B00E4800B0102040810204080900EFDE47E4D
:100D3B00019360BCA3FF543F30E509541FFEE493BD
:100D4B00A360010ECF54C025E060A840B8E493A384
:100D5B00FAE493A3F8E493A3C8C582C8CAC583CAAF
:100D6B00F0A3C8C582C8CAC583CADFE9DEE780BE67
:010F480000A8
:1003F400C2D530F707B2D563F0FF05F030E70CB291
:10040400D5F4048463F0FF05F080018430D502F450
:020414000422C0
:10041600EF8DF0A4A8F0CF8CF0A428CE8DF0A42EFA
:02042600FE22B4
:10042800BC000BBE0029EF8DF084FFADF022E4CCB8
:10043800F875F008EF2FFFEE33FEEC33FCEE9DEC81
:10044800984005FCEE9DFE0FD5F0E9E4CEFD22EDC7
:10045800F8F5F0EE8420D21CFEADF075F008EF2F11
:10046800FFED33FD4007985006D5F0F222C398FD02
:050478000FD5F0EA229F
:10047D00C2D5EC30E709B2D5E4C39DFDE49CFCEE9A
:10048D0030E715B2D5E4C39FFFE49EFE120428C3E6
:10049D00E49DFDE49CFC800312042830D507C3E4E1
:0604AD009FFFE49EFE2209
:0E04B300C3E49FFFE49EFEE49DFDE49CFC225A
:00000001FF
