:03000000020417E0
:0C041700787FE4F6D8FD75812D02045EAC
:1005D600071680828486888A8C070F81838587899F
:0B05E6008B8D07081059220804012427
:1007E100E4FEC297EF1392A3EFC313FFD2970EBE9D
:0207F10008F00E
:0107F30022E3
:1007CD00C29300C29700D293001207E1AF05120742
:0407DD00E1C29322C0
:10060F00E4FDC29300C29700D293001207E1E4FF0A
:10061F00C297EDC313FD30A303430580D2970FBFDD
:10062F0008EEC29300C29700D29700C2A300D2A3D4
:03063F0000AF0504
:010642002295
:1006F100E4FD7F8E1207CDE4FC74162CF8E6FF743E
:10070100082CF8E6FD1207CD0CBC07ED7D807F8E2D
:030711000207CD0F
:1007B700E4FC740F2CF8E6FF12060F74082CF8A659
:0507C700070CBC07ED6A
:0107CC00220A
:10075000C0F9A4B0999282F880908880C6C0868E35
:0C076000BF7F407924301912027800108D
:1005F100012D01012A00022B001701230001270010
:0D0601000129000221000001240001280150
:100676001208041207F41206F11207B71204A38E29
:10068600258F26E508700AE5097006752701752489
:0C0696006412035B12024812052880DD8C
:1007F400758901758AB0758C3CD28CD2A9D2AF228E
:03000B0002059655
:10059600C0E0C0D0758AB0758C3CE527B40106D59D
:1005A6002403752700E529B401210522E5227002FE
:1005B6000521640245217013E528B401057528005C
:1005C6008003752801752100752200D0D0D0E03255
:10064300EF24FB601314601914601F24037023E567
:10065300A0541F4480F5A022E5A0541F44A0F5A098
:1006630022E5A0541F44C0F5A022E5A0541F44E096
:03067300F5A022CD
:1007A000AE077F05120643EE7005D284C28622BED4
:0707B0000104C284C286228D
:100804007F051206437580AF1F1206437580FF22D1
:10071400AE077F06120643AF067401A807088002DD
:0E072400C333D8FCF5807F071206438D802278
:100814007F06120643E4F5800F1206437580FF221B
:1006A2007DC1FF1207147F647E001206BFE52D9004
:0D06B20007507F0193FD1207147F647E0046
:0B06BF00EF1FAC0670011E4C70F6220D
:10024800E52D6401704F1206A2AE25AF267C007D15
:10025800641201E574502FF58274073EF583E47F3C
:10026800051206B6AE25AF267C007D641201E57E38
:10027800007F0ACFCDCFCECCCE1201E574622FF528
:100288008274073EF583E493FD7F061206B8AE2517
:10029800AF2602033EE52D640270711207B7E5230D
:1002A80070311206A2E50AC4540F93FD7F031206AB
:1002B800B8E50A540F93FD7F041206B87DBF7F0589
:1002C8001206B8E509C4540F93FD7F061206B8E577
:1002D800098035E523640170791206A2E509C45442
:1002E8000F93FD7F031206B8E509540F93FD7F04B1
:1002F8001206B87DBF7F051206B8E508C4540F93EF
:10030800FD7F061206B8E508540F803CE52D64030E
:1003180070401206A2AE2BAF2C7C007D0A1201E5BC
:1003280074502FF58274073EF583E493FD7F06121F
:1003380006B8AE2BAF2C7C007D0A1201E574502D57
:10034800F58274073CF583E493FD7F071206B81223
:0303580008142264
:10035B00C2B3D2B2D2B4D2B520B51D1206BB20B5F2
:10036B000CE52DB40305752D018002052D20B53844
:10037B0012024812052880F520B42D1206BB20B4BA
:10038B001CE52DB40317E52C6463452B7007F52B87
:10039B00752C0A8008052CE52C7002052B20B4085F
:1003AB0012024812052880F5C2B2D2B3D2B4D2B52C
:1003BB0020B51D1206BB20B50CE52A7005752A0168
:1003CB008003E4F52A20B54312024812052880F574
:1003DB0020B4381206BB20B424E52DB402037523D8
:1003EB0001E52DB40317E52C640A452B7007F52B9B
:1003FB00752C638008E52C152C7002152B20B40886
:0C040B0012024812052880F5E4F52322B7
:090824007F041206437580FF22D7
:10052800120824E527B401077F04120643C280E5B8
:100538002A701F7F04120643C281AE2BAF2C7C00A9
:100548007D0A1201D3D3E5269FE5259E7F04402529
:10055800800DE52A6401702DE5277F04B401161289
:100568000643E52824FF9282E4FF1207A01208241C
:100578007529018010120643D2827F011207A0124A
:0E0588000824E4F5297F041206437580FF2243
:04076C007F057E0087
:10077000EF1FAA0670011E4A600BE4FDEDC3940C46
:0507800050EE0D80F7B2
:010785002251
:02073200A90715
:10073400E4FBC294E913929412076CD294E9C313B4
:0C074400F90BBB08ED7F057E000207707A
:10078600E4FBC294ECC313FCD2943094034304807C
:0907960012076C0BBB08EBAF0469
:01079F002237
:1006CA00C200D2947F0C7E00120770C2947F507EC3
:1006DA0000120770D2947F0A7E00120770A29492C9
:0606EA000012076CA200E3
:0106F00022E7
:1004A3001206CA7FCC1207327F441207321206CAE1
:1004B3007FCC1207327FBE120732120786A90712BA
:1004C3000786AC071206CAE4F51DF51EAF04F51D39
:1004D3008F1EE51E751E00F51DE9421EE51D54F82D
:1004E3007042E51DC4F854F0C868F51DE51EC454F8
:1004F3000F48F51EAE1DFF7C007D0A1201D38E1D31
:100503008F1EE9540FFCE412011EE4FBFA792078F4
:100513003F12000E120152EF251EF51EEE351DF59A
:040523001DFEAF1EEC
:0105270022B1
:10000E00EC4D6011E8497017ED33EC3304600DE4EC
:10001E00FCFFFEFD22E933E8330470F80201BE1244
:10002E00018958046009E4CC248150062850090245
:10003E0001C82840030201C5C0E0EB4A7044B980F4
:10004E0006D0E0FB0201B4EF4E701CBD8008EBFF42
:10005E00EAFEE9FD80EBE98DF0A4FEE5F00200F783
:10006E00E9CDF9EAFEEBFFEF89F0A4FCE5F0CE89CD
:10007E00F0A42EFFE435F0CD89F0A42DFEE435F08A
:10008E008067EF4E7005BD80D780C3EF8BF0A4ACB8
:10009E00F0EE8BF0A42CFCE435F0F8EF8AF0A42CF3
:1000AE00E5F038FCE433CB8DF0A42CFCE5F03BF806
:1000BE00EE8AF0A42CFCE5F038F8E433CF89F0A4F6
:1000CE002CFCE5F038CF3400CE89F0A42FFFE5F0FC
:1000DE003EFEE433C98DF0A42EFEE5F039CD8AF054
:1000EE00A42FFFE5F03EFEE43DFD33D0E0FB5007CC
:1000FE000BBB000F0201C8EC2CFCEF33FFEE33FEFE
:06010E00ED33FD0201A02B
:1001140075F020800E75F010800575F0087D007E66
:10012400007F003392D530D50312023AEC334010ED
:10013400EF33FFEE33FEED33FDEC33FCD5F0ED226F
:0E014400E5F0247EA2D513CC92E7CDCEFF22AB
:10015200EDD2E7CD33EC3392D524814006E4FFFEA5
:10016200FDFC22FCE4CFCECDCC24E0501174FF8004
:10017200EDC3CC13CCCD13CDCE13CECF13CF0470A1
:07018200F030D5DE02023A65
:10018900E9D2E7C933E833F892D5EDD2E7CD33ECBC
:0701990033FC5002B2D52235
:1001A000EC30E7100FBF000C0EBE00080DBD0004C0
:1001B0000BEB6014A2D5EB13FCED92E7FD2274FF6C
:1001C000FCFDFEFF22E480F8A2D574FF13FC7D80C5
:0301D000E480EFD9
:10042300020676E493A3F8E493A34003F68001F273
:1004330008DFF48029E493A3F85407240CC8C333DA
:10044300C4540F4420C8834004F456800146F6DFA9
:10045300E4800B01020408102040809005D6E47E5E
:10046300019360BCA3FF543F30E509541FFEE4939E
:10047300A360010ECF54C025E060A840B8E493A365
:10048300FAE493A3F8E493A3C8C582C8CAC583CA90
:10049300F0A3C8C582C8CAC583CADFE9DEE780BE48
:01060E0000EB
:1001D300EF8DF0A4A8F0CF8CF0A428CE8DF0A42E40
:0201E300FE22FA
:1001E500BC000BBE0029EF8DF084FFADF022E4CCFE
:1001F500F875F008EF2FFFEE33FEEC33FCEE9DECC7
:10020500984005FCEE9DFE0FD5F0E9E4CEFD22ED0C
:10021500F8F5F0EE8420D21CFEADF075F008EF2F56
:10022500FFED33FD4007985006D5F0F222C398FD47
:050235000FD5F0EA22E4
:0E023A00C3E49FFFE49EFEE49DFDE49CFC22D5
:00000001FF
