:03000000020440B7
:0C044000787FE4F6D8FD75812002048767
:040728007F057E00CB
:10072C00EF1FAA0670011E4A600BE4FDEDC3940C8A
:05073C0050EE0D80F7F6
:010741002295
:02067A00A907CE
:10067C00E4FBC294E9139294120728D294E9C313B1
:0C068C00F90BBB08ED7F057E0002072C77
:10074200E4FBC294ECC313FCD294309403430480C0
:090752001207280BBB08EBAF04F1
:01075B00227B
:1005E800C200D2947F0C7E0012072CC2947F507EEA
:1005F8000012072CD2947F0A7E0012072CA2949234
:0606080000120728A20009
:01060E0022C9
:1004CC001205E87FCC12067A7F4412067A1205E8F0
:1004DC007FCC12067A7FBE12067A120742A9071247
:1004EC0007427513008F14E514751400F513E942D7
:1004FC0014E51354F87051E513C4F854F0C868F5BA
:10050C0013E514C4540F48F514E9540FFCE412021B
:10051C000BE4FBFA7920783F1200FBC004C005C045
:10052C0006C007AE13AF147C007D0A1202C0AC06E5
:10053C00AD07E4120206D003D002D001D0001200A5
:08054C000A12023F8E138F1406
:010554002284
:1006F000C0F9A4B0999282F880908880C6C0868E96
:0C070000BF7F40792430191202780010ED
:0A081400011101020F0000011200A3
:10060F0012084F1204CC8E0F8F101206357F031273
:10061F0007FF8F121204CC8E0F8F101207BF120616
:06062F005812033580E7BC
:10058900EF24FB601314601914601F24037023E522
:10059900A0541F4480F5A022E5A0541F44A0F5A053
:1005A90022E5A0541F44C0F5A022E5A0541F44E051
:0305B900F5A02288
:10084F007F051205895380AF1F1205897580FF221E
:10069800AE077F06120589AF067401A80708800215
:0E06A800C333D8FCF5807F071205898D8022B0
:10085F007F06120589E4F5800F1205897580FF2246
:0F075C00C4540F9006F093FD1206987F647E0040
:0B076B00EF1FAC0670011E4C70F62260
:10033500E51164017050E50AC4540F9006F093FD71
:10034500E4FF120764E50A540F93FD7F0112076469
:10035500900700E493FD7F02120764E5097F03120D
:10036500075CE509540F93FD7F04120764900700AD
:10037500E493FD7F05120764E5087F0612075CE537
:1003850008540F020435E511640270699006FC9368
:10039500FDE4FF120764AE0FAF107C007D6412020E
:1003A500D274F02FF58274063EF583E493FD7F0544
:1003B500120764AE0FAF107C007D641202D27E007E
:1003C5007F0ACFCDCFCECCCE1202D274F02FF582DC
:1003D50074063EF583E493FD7F06120764AE0FAF06
:1003E500107C007D0A1202D274F02DF58274063C51
:1003F500F583E4803BE5116403703F9006FE93FDB1
:10040500E4FF120764E51275F064849006F093FD2D
:100415007F05120764E51275F06484E5F075F00A4E
:100425008493FD7F06120764E51275F00A84E5F0F2
:0B04350093FD7F0712076412085F228E
:10065800C2B0D2C220C21212076720C20CE511B480
:1006680003057511018002051120C20512033580AA
:02067800F82266
:04077600D2A07F0A84
:10077A00000000000000000000000000000000AEC1
:06078A00071FEE70EB22D8
:0F086F00D2A1120776C2A17F0A12077AC2A02275
:10070C001205BC1206DE1206B6AD077F0112079069
:0C071C00C2A1120776D2A17F0A02077A60
:0205BC00AD0789
:1005BE00E4FCC2A07F0A12077AED30E704D2A180D4
:1005CE0002C2A17F0A12077AD2A0ED25E0FD7F0AB2
:0905DE0012077A0CBC08DBC2A074
:0105E70022F1
:1006B600E4FC120776ED25E0FD30A103430501C2F7
:0C06C600A07F0A12077A0CBC08E8AF0500
:0106D2002205
:0B06D3001205BC1206DEAF031205BCCE
:1006DE00120776A2A1E433FDC2A07F0A12077AAFF9
:0106EE000506
:0106EF0022E8
:10079000C2A0EF24FF92A17F0A12077A120776C245
:0807A000A0D2A17F0A02077A32
:1007A800AB05AA0712086F7FA01205BC1206DEAFC0
:0707B800021206D302071C28
:0207D500AB0770
:1007D70012086F7FA01206D312086F7FA112070CB1
:0207E700AF055C
:0107E90022ED
:1007EA00AB0712086F7F901205BC1206DE7F40121B
:0507FA0006D302071CFC
:0207FF00AB0746
:1008010012086F7F901206D312086F7F9112070CA6
:02081100AF0531
:0108130022C2
:0E087E0081838587898B8D80828486888A8C11
:09081E000708005217120405241A
:10083C00E4FEC297EF1392A3EFC313FFD2970EBE41
:02084C0008F0B2
:01084E002287
:10082800C29300C29700D2930012083CAF05120889
:040838003CC2932209
:10055500E4FDC29300C29700D2930012083CE4FF69
:10056500C297EDC313FD30A303430580D2970FBF98
:1005750008EEC29300C29700D29700C2A300D2A38F
:0305850000AF05BF
:010588002250
:10063500E4FD7F8E120828E4FCEC90088593FF7496
:10064500082CF8E6FD1208280CBC07ED7D807F8E8E
:0306550002082870
:1007BF00E4FCEC90087E93FF12055574082CF8A604
:0507CF00070CBC07ED62
:0107D4002202
:100003000202ABE86480F8E933E83360110460F07E
:10001300ED33EC337009E8FCE9FDEAFEEBFF220463
:1000230060DED3EB9FEA9EE99DE8C2E78CF0C2F75E
:1000330095F0400CE8CCF8E9CDF9EACEFAEBCFFB2A
:1000430012027685D0F05804700320D5B3E804700B
:10005300075002B2D50202B592D5EC0460F7E4CCA6
:10006300C0E0C398F8603B94186008400DD0E0FBF3
:1000730002028DE4FBFAC9FC8028E830E406E4C9F7
:10008300FBE4CAFCE830E305E4C9CACBFCE8540747
:100093006010F8C3E913F9EA13FAEB13FBEC13FC52
:1000A300D8F130F52FC3E49CFCEF9BFFEE9AFEEDF5
:1000B30099FDD0E0FBEF4E4D4C701222DB030202A0
:1000C300B2EC2CFCEF33FFEE33FEED33FDED30E706
:1000D300EB02028DEF2BFFEE3AFEED39FDD0E0FB94
:1000E30050130BBB00030202B5ED13FDEE13FEEF3D
:0800F30013FFEC13FC02028D67
:1000FB00EC4D6011E8497017ED33EC3304600DE4FF
:10010B00FCFFFEFD22E933E8330470F80202AB1268
:10011B00027658046009E4CC248150062850090269
:10012B0002B52840030202B2C0E0EB4A7044B9802A
:10013B0006D0E0FB0202A1EF4E701CBD8008EBFF66
:10014B00EAFEE9FD80EBE98DF0A4FEE5F00201E4A7
:10015B00E9CDF9EAFEEBFFEF89F0A4FCE5F0CE89DF
:10016B00F0A42EFFE435F0CD89F0A42DFEE435F09C
:10017B008067EF4E7005BD80D780C3EF8BF0A4ACCA
:10018B00F0EE8BF0A42CFCE435F0F8EF8AF0A42C05
:10019B00E5F038FCE433CB8DF0A42CFCE5F03BF818
:1001AB00EE8AF0A42CFCE5F038F8E433CF89F0A408
:1001BB002CFCE5F038CF3400CE89F0A42FFFE5F00E
:1001CB003EFEE433C98DF0A42EFEE5F039CD8AF066
:1001DB00A42FFFE5F03EFEE43DFD33D0E0FB5007DE
:1001EB000BBB000F0202B5EC2CFCEF33FFEE33FE22
:0601FB00ED33FD02028D50
:1002010075F020800E75F010800575F0087D007E78
:10021100007F003392D530D503120327EC33401011
:10022100EF33FFEE33FEED33FDEC33FCD5F0ED2281
:0E023100E5F0247EA2D513CC92E7CDCEFF22BD
:10023F00EDD2E7CD33EC3392D524814006E4FFFEB7
:10024F00FDFC22FCE4CFCECDCC24E0501174FF8016
:10025F00EDC3CC13CCCD13CDCE13CECF13CF0470B3
:07026F00F030D5DE02032789
:10027600E9D2E7C933E833F892D5EDD2E7CD33ECCE
:0702860033FC5002B2D52247
:10028D00EC30E7100FBF000C0EBE00080DBD0004D2
:10029D000BEB6014A2D5EB13FCED92E7FD2274FF7E
:1002AD00FCFDFEFF22E480F8A2D574FF13FC7D80D7
:0302BD00E480EFEB
:10044C0002060FE493A3F8E493A34003F68001F2B1
:10045C0008DFF48029E493A3F85407240CC8C333B1
:10046C00C4540F4420C8834004F456800146F6DF80
:10047C00E4800B0102040810204080900814E47EF4
:10048C00019360BCA3FF543F30E509541FFEE49375
:10049C00A360010ECF54C025E060A840B8E493A33C
:1004AC00FAE493A3F8E493A3C8C582C8CAC583CA67
:1004BC00F0A3C8C582C8CAC583CADFE9DEE780BE1F
:0108270000D0
:1002C000EF8DF0A4A8F0CF8CF0A428CE8DF0A42E52
:0202D000FE220C
:1002D200BC000BBE0029EF8DF084FFADF022E4CC10
:1002E200F875F008EF2FFFEE33FEEC33FCEE9DECD9
:1002F200984005FCEE9DFE0FD5F0E9E4CEFD22ED1F
:10030200F8F5F0EE8420D21CFEADF075F008EF2F68
:10031200FFED33FD4007985006D5F0F222C398FD59
:050322000FD5F0EA22F6
:0E032700C3E49FFFE49EFEE49DFDE49CFC22E7
:00000001FF
