:030000000200BB40
:0C00BB00787FE4F6D8FD75810D0201028B
:10029B00C0F9A4B0999282F880908883C6C0868EEC
:0202AB00BF7F13
:0C02BD00020A000002080000020C000011
:10025000E493FF1202767FF47E0112026B9002ABF0
:0B026000E41D93FF1202767FF47E0184
:0B026B00EF1FAC0670011E4C70F62265
:10021D00EF24FB601314601914601F24037023E591
:10022D00A0541F4480F5A022E5A0541F44A0F5A0C2
:10023D0022E5A0541F44C0F5A022E5A0541F44E0C0
:03024D00F5A022F7
:10027600AE077F0712021D7580FF1F12021DAF0514
:100286007401A807088002C333D8FCF5807F0712E3
:05029600021D8E802214
:10000E00AE0CAF0D7C007D0A120147749B2DF5825C
:10001E0074023CF583E47D07120262AE0CAF0D7CD8
:10002E00007D0A120147749B2FF58274023EF58300
:10003E007D06120250AE08AF097C007D0A12014700
:10004E00749B2DF58274023CF583E493FF7D0412BC
:10005E000264AE08AF097C007D0A120147749B2F23
:10006E00F58274023EF5837D03120250AE0AAF0B89
:10007E007C007D0A120147749B2DF58274023CF5BB
:10008E0083E493FF7D01120264AE0AAF0B7C007D08
:10009E000A120147749B2FF58274023EF583E49396
:0D00AE00FFE4FD1202767FF47E0102026B7A
:1002AD00758901758C3C758AAFD2A9D2AFD28C22DB
:03000B0002019C53
:10019C00C0E0758C3C758AAF050DE50D7002050C41
:1001AC006414450C702E0509E50970020508750CE0
:1001BC0000750D00643C4508700E050BE50B7002D4
:1001CC00050A750800750900E50B6463450A70049F
:0701DC00F50AF50BD0E0323B
:1001E30020B3147F647E0012026B20B30AB28C200A
:1001F300B30512000E80F820B21F7F647E00120246
:100203006B20B215E4F50AF50BF508F509F50CF5C5
:0A0213000D20B20512000E80F82243
:0B02CA001202AD12000E1201E380F8DA
:1000C7000202CAE493A3F8E493A34003F68001F283
:1000D70008DFF48029E493A3F85407240CC8C3333A
:1000E700C4540F4420C8834004F456800146F6DF09
:1000F700E4800B01020408102040809002BDE47EDA
:10010700019360BCA3FF543F30E509541FFEE493FD
:10011700A360010ECF54C025E060A840B8E493A3C4
:10012700FAE493A3F8E493A3C8C582C8CAC583CAEF
:10013700F0A3C8C582C8CAC583CADFE9DEE780BEA7
:0102C9000034
:10014700BC000BBE0029EF8DF084FFADF022E4CC9C
:10015700F875F008EF2FFFEE33FEEC33FCEE9DEC65
:10016700984005FCEE9DFE0FD5F0E9E4CEFD22EDAB
:10017700F8F5F0EE8420D21CFEADF075F008EF2FF5
:10018700FFED33FD4007985006D5F0F222C398FDE6
:050197000FD5F0EA2283
:00000001FF
